{
  "_format": "hh-sol-artifact-1",
  "contractName": "LuckyLens",
  "sourceName": "contracts/LuckyLens.sol",
  "abi": [
    {
      "inputs": [
        {
          "internalType": "uint64",
          "name": "id",
          "type": "uint64"
        },
        {
          "internalType": "address",
          "name": "_lensHubProxy",
          "type": "address"
        }
      ],
      "stateMutability": "nonpayable",
      "type": "constructor"
    },
    {
      "inputs": [
        {
          "internalType": "address",
          "name": "have",
          "type": "address"
        },
        {
          "internalType": "address",
          "name": "want",
          "type": "address"
        }
      ],
      "name": "OnlyCoordinatorCanFulfill",
      "type": "error"
    },
    {
      "anonymous": false,
      "inputs": [
        {
          "indexed": true,
          "internalType": "address",
          "name": "owner",
          "type": "address"
        },
        {
          "indexed": true,
          "internalType": "uint256",
          "name": "raffleId",
          "type": "uint256"
        },
        {
          "indexed": true,
          "internalType": "uint256",
          "name": "profileId",
          "type": "uint256"
        },
        {
          "indexed": false,
          "internalType": "uint256",
          "name": "pubId",
          "type": "uint256"
        },
        {
          "indexed": false,
          "internalType": "uint256",
          "name": "time",
          "type": "uint256"
        }
      ],
      "name": "PostRaffle",
      "type": "event"
    },
    {
      "anonymous": false,
      "inputs": [
        {
          "indexed": true,
          "internalType": "uint256",
          "name": "raffleId",
          "type": "uint256"
        },
        {
          "indexed": true,
          "internalType": "uint256",
          "name": "requestId",
          "type": "uint256"
        },
        {
          "indexed": true,
          "internalType": "uint256",
          "name": "randomNum",
          "type": "uint256"
        }
      ],
      "name": "RequestFulfilled",
      "type": "event"
    },
    {
      "anonymous": false,
      "inputs": [
        {
          "indexed": true,
          "internalType": "uint256",
          "name": "raffleId",
          "type": "uint256"
        },
        {
          "indexed": true,
          "internalType": "uint256",
          "name": "requestId",
          "type": "uint256"
        },
        {
          "indexed": false,
          "internalType": "uint32",
          "name": "numWords",
          "type": "uint32"
        }
      ],
      "name": "RequestSent",
      "type": "event"
    },
    {
      "inputs": [
        {
          "internalType": "uint256",
          "name": "",
          "type": "uint256"
        }
      ],
      "name": "Raffles",
      "outputs": [
        {
          "internalType": "address",
          "name": "owner",
          "type": "address"
        },
        {
          "internalType": "uint256",
          "name": "profileId",
          "type": "uint256"
        },
        {
          "internalType": "uint256",
          "name": "pubId",
          "type": "uint256"
        },
        {
          "internalType": "uint256",
          "name": "time",
          "type": "uint256"
        },
        {
          "internalType": "uint256",
          "name": "randomNum",
          "type": "uint256"
        }
      ],
      "stateMutability": "view",
      "type": "function"
    },
    {
      "inputs": [
        {
          "internalType": "uint256",
          "name": "raffleId",
          "type": "uint256"
        }
      ],
      "name": "chooseRandomWinner",
      "outputs": [],
      "stateMutability": "nonpayable",
      "type": "function"
    },
    {
      "inputs": [
        {
          "internalType": "uint256[]",
          "name": "raffleIds",
          "type": "uint256[]"
        }
      ],
      "name": "getRandomNums",
      "outputs": [
        {
          "internalType": "uint256[]",
          "name": "",
          "type": "uint256[]"
        }
      ],
      "stateMutability": "view",
      "type": "function"
    },
    {
      "inputs": [
        {
          "internalType": "uint256",
          "name": "_requestId",
          "type": "uint256"
        }
      ],
      "name": "getRequestStatus",
      "outputs": [
        {
          "internalType": "bool",
          "name": "fulfilled",
          "type": "bool"
        },
        {
          "internalType": "uint256[]",
          "name": "randomWords",
          "type": "uint256[]"
        }
      ],
      "stateMutability": "view",
      "type": "function"
    },
    {
      "inputs": [
        {
          "internalType": "uint256",
          "name": "timeInSeconds",
          "type": "uint256"
        }
      ],
      "name": "isAfter",
      "outputs": [
        {
          "internalType": "bool",
          "name": "",
          "type": "bool"
        }
      ],
      "stateMutability": "view",
      "type": "function"
    },
    {
      "inputs": [],
      "name": "lastRequestId",
      "outputs": [
        {
          "internalType": "uint256",
          "name": "",
          "type": "uint256"
        }
      ],
      "stateMutability": "view",
      "type": "function"
    },
    {
      "inputs": [
        {
          "internalType": "uint256",
          "name": "profileId",
          "type": "uint256"
        },
        {
          "internalType": "uint256",
          "name": "pubId",
          "type": "uint256"
        }
      ],
      "name": "newRaffleDrawNow",
      "outputs": [],
      "stateMutability": "nonpayable",
      "type": "function"
    },
    {
      "inputs": [
        {
          "internalType": "uint256",
          "name": "profileId",
          "type": "uint256"
        },
        {
          "internalType": "uint256",
          "name": "pubId",
          "type": "uint256"
        },
        {
          "internalType": "uint256",
          "name": "time",
          "type": "uint256"
        }
      ],
      "name": "postRaffle",
      "outputs": [
        {
          "internalType": "uint256",
          "name": "",
          "type": "uint256"
        }
      ],
      "stateMutability": "nonpayable",
      "type": "function"
    },
    {
      "inputs": [
        {
          "internalType": "uint256",
          "name": "requestId",
          "type": "uint256"
        },
        {
          "internalType": "uint256[]",
          "name": "randomWords",
          "type": "uint256[]"
        }
      ],
      "name": "rawFulfillRandomWords",
      "outputs": [],
      "stateMutability": "nonpayable",
      "type": "function"
    },
    {
      "inputs": [
        {
          "internalType": "uint256",
          "name": "",
          "type": "uint256"
        }
      ],
      "name": "requestIdToRaffleId",
      "outputs": [
        {
          "internalType": "uint256",
          "name": "",
          "type": "uint256"
        }
      ],
      "stateMutability": "view",
      "type": "function"
    },
    {
      "inputs": [
        {
          "internalType": "uint256",
          "name": "",
          "type": "uint256"
        }
      ],
      "name": "requestIds",
      "outputs": [
        {
          "internalType": "uint256",
          "name": "",
          "type": "uint256"
        }
      ],
      "stateMutability": "view",
      "type": "function"
    },
    {
      "inputs": [
        {
          "internalType": "uint256",
          "name": "",
          "type": "uint256"
        }
      ],
      "name": "s_requests",
      "outputs": [
        {
          "internalType": "bool",
          "name": "fulfilled",
          "type": "bool"
        },
        {
          "internalType": "bool",
          "name": "exists",
          "type": "bool"
        }
      ],
      "stateMutability": "view",
      "type": "function"
    },
    {
      "inputs": [],
      "name": "timestamp",
      "outputs": [
        {
          "internalType": "uint256",
          "name": "",
          "type": "uint256"
        }
      ],
      "stateMutability": "view",
      "type": "function"
    },
    {
      "inputs": [],
      "name": "totalRaffles",
      "outputs": [
        {
          "internalType": "uint256",
          "name": "",
          "type": "uint256"
        }
      ],
      "stateMutability": "view",
      "type": "function"
    }
  ],
  "bytecode": "0x60c06040527f4b09e658ed251bcafeebbc69400383d49f344ace09b9576fe248bb02c003fe9f60001b600455620186a0600560006101000a81548163ffffffff021916908363ffffffff1602179055506003600560046101000a81548161ffff021916908361ffff1602179055506001600560066101000a81548163ffffffff021916908363ffffffff1602179055503480156200009c57600080fd5b5060405162001c8438038062001c848339818101604052810190620000c2919062000277565b81737a1bac17ccc5b313516c5e16fb24f7659aa5ebed8073ffffffffffffffffffffffffffffffffffffffff1660808173ffffffffffffffffffffffffffffffffffffffff168152505050737a1bac17ccc5b313516c5e16fb24f7659aa5ebed600160006101000a81548173ffffffffffffffffffffffffffffffffffffffff021916908373ffffffffffffffffffffffffffffffffffffffff16021790555080600160146101000a81548167ffffffffffffffff021916908367ffffffffffffffff160217905550508073ffffffffffffffffffffffffffffffffffffffff1660a08173ffffffffffffffffffffffffffffffffffffffff16815250505050620002be565b600080fd5b600067ffffffffffffffff82169050919050565b620001ec81620001cd565b8114620001f857600080fd5b50565b6000815190506200020c81620001e1565b92915050565b600073ffffffffffffffffffffffffffffffffffffffff82169050919050565b60006200023f8262000212565b9050919050565b620002518162000232565b81146200025d57600080fd5b50565b600081519050620002718162000246565b92915050565b60008060408385031215620002915762000290620001c8565b5b6000620002a185828601620001fb565b9250506020620002b48582860162000260565b9150509250929050565b60805160a05161199c620002e8600039600050506000818161039701526103eb015261199c6000f3fe608060405234801561001057600080fd5b50600436106100ea5760003560e01c80638a41d3e31161008c578063b80777ea11610066578063b80777ea14610286578063d23f5cd3146102a4578063d8a4676f146102d4578063fc2a88c314610305576100ea565b80638a41d3e314610209578063a168fa8914610239578063adcb68e81461026a576100ea565b80633619283d116100c85780633619283d1461016f5780633748312f1461018b5780636174b273146101a95780638796ba8c146101d9576100ea565b806319956d2f146100ef5780631d5ccd9b1461011f5780631fe543e314610153575b600080fd5b61010960048036038101906101049190610f28565b610323565b6040516101169190610f70565b60405180910390f35b61013960048036038101906101349190610f28565b61032f565b60405161014a959493929190610fdb565b60405180910390f35b61016d60048036038101906101689190611187565b610395565b005b61018960048036038101906101849190610f28565b610455565b005b6101936106b6565b6040516101a091906111e3565b60405180910390f35b6101c360048036038101906101be91906111fe565b6106c3565b6040516101d091906111e3565b60405180910390f35b6101f360048036038101906101ee9190610f28565b610812565b60405161020091906111e3565b60405180910390f35b610223600480360381019061021e9190610f28565b610836565b60405161023091906111e3565b60405180910390f35b610253600480360381019061024e9190610f28565b61084e565b604051610261929190611251565b60405180910390f35b610284600480360381019061027f919061127a565b61088c565b005b61028e6108a9565b60405161029b91906111e3565b60405180910390f35b6102be60048036038101906102b99190611315565b6108b1565b6040516102cb9190611420565b60405180910390f35b6102ee60048036038101906102e99190610f28565b61098d565b6040516102fc929190611442565b60405180910390f35b61030d610ab6565b60405161031a91906111e3565b60405180910390f35b60008142119050919050565b6007818154811061033f57600080fd5b90600052602060002090600502016000915090508060000160009054906101000a900473ffffffffffffffffffffffffffffffffffffffff16908060010154908060020154908060030154908060040154905085565b7f000000000000000000000000000000000000000000000000000000000000000073ffffffffffffffffffffffffffffffffffffffff163373ffffffffffffffffffffffffffffffffffffffff161461044757337f00000000000000000000000000000000000000000000000000000000000000006040517f1cf993f400000000000000000000000000000000000000000000000000000000815260040161043e929190611472565b60405180910390fd5b6104518282610abc565b5050565b600073ffffffffffffffffffffffffffffffffffffffff16600782815481106104815761048061149b565b5b906000526020600020906005020160000160009054906101000a900473ffffffffffffffffffffffffffffffffffffffff1673ffffffffffffffffffffffffffffffffffffffff16141561050a576040517f08c379a00000000000000000000000000000000000000000000000000000000081526004016105019061154d565b60405180910390fd5b6007818154811061051e5761051d61149b565b5b906000526020600020906005020160000160009054906101000a900473ffffffffffffffffffffffffffffffffffffffff1673ffffffffffffffffffffffffffffffffffffffff163373ffffffffffffffffffffffffffffffffffffffff16146105bd576040517f08c379a00000000000000000000000000000000000000000000000000000000081526004016105b4906115b9565b60405180910390fd5b6000600782815481106105d3576105d261149b565b5b90600052602060002090600502016004015414610625576040517f08c379a000000000000000000000000000000000000000000000000000000000815260040161061c9061164b565b60405180910390fd5b600781815481106106395761063861149b565b5b90600052602060002090600502016003015442101561068d576040517f08c379a0000000000000000000000000000000000000000000000000000000008152600401610684906116dd565b60405180910390fd5b600061069882610c22565b90508160066000838152602001908152602001600020819055505050565b6000600780549050905090565b600060076040518060a001604052803373ffffffffffffffffffffffffffffffffffffffff1681526020018681526020018581526020018481526020016000815250908060018154018082558091505060019003906000526020600020906005020160009091909190915060008201518160000160006101000a81548173ffffffffffffffffffffffffffffffffffffffff021916908373ffffffffffffffffffffffffffffffffffffffff160217905550602082015181600101556040820151816002015560608201518160030155608082015181600401555050600060016007805490506107b3919061172c565b905084813373ffffffffffffffffffffffffffffffffffffffff167f707419177aa182a007b8d3acc86d56c53ba6557bbf563101b8e53e62dcbbd3e487876040516107ff929190611760565b60405180910390a4809150509392505050565b6002818154811061082257600080fd5b906000526020600020016000915090505481565b60066020528060005260406000206000915090505481565b60006020528060005260406000206000915090508060000160009054906101000a900460ff16908060000160019054906101000a900460ff16905082565b60006108998383426106c3565b90506108a481610455565b505050565b600042905090565b606060008383905067ffffffffffffffff8111156108d2576108d1611044565b5b6040519080825280602002602001820160405280156109005781602001602082028036833780820191505090505b50905060005b848490508110156109825760078585838181106109265761092561149b565b5b905060200201358154811061093e5761093d61149b565b5b9060005260206000209060050201600401548282815181106109635761096261149b565b5b602002602001018181525050808061097a90611789565b915050610906565b508091505092915050565b6000606060008084815260200190815260200160002060000160019054906101000a900460ff166109f3576040517f08c379a00000000000000000000000000000000000000000000000000000000081526004016109ea9061181e565b60405180910390fd5b60008060008581526020019081526020016000206040518060600160405290816000820160009054906101000a900460ff161515151581526020016000820160019054906101000a900460ff1615151515815260200160018201805480602002602001604051908101604052809291908181526020018280548015610a9757602002820191906000526020600020905b815481526020019060010190808311610a83575b5050505050815250509050806000015181604001519250925050915091565b60035481565b60008083815260200190815260200160002060000160019054906101000a900460ff16610b1e576040517f08c379a0000000000000000000000000000000000000000000000000000000008152600401610b159061181e565b60405180910390fd5b600160008084815260200190815260200160002060000160006101000a81548160ff021916908315150217905550806000808481526020019081526020016000206001019080519060200190610b75929190610e74565b5060006006600084815260200190815260200160002054905081600081518110610ba257610ba161149b565b5b602002602001015160078281548110610bbe57610bbd61149b565b5b90600052602060002090600502016004018190555081600081518110610be757610be661149b565b5b602002602001015183827f8a06e59f8bcf6fd7f3d4f78e40f7271ef279eaf8e0fc07df107169ccdc05ab6560405160405180910390a4505050565b6000600160009054906101000a900473ffffffffffffffffffffffffffffffffffffffff1673ffffffffffffffffffffffffffffffffffffffff16635d3b1d30600454600160149054906101000a900467ffffffffffffffff16600560049054906101000a900461ffff16600560009054906101000a900463ffffffff16600560069054906101000a900463ffffffff166040518663ffffffff1660e01b8152600401610cd39594939291906118b6565b6020604051808303816000875af1158015610cf2573d6000803e3d6000fd5b505050506040513d601f19601f82011682018060405250810190610d16919061191e565b90506040518060600160405280600015158152602001600115158152602001600067ffffffffffffffff811115610d5057610d4f611044565b5b604051908082528060200260200182016040528015610d7e5781602001602082028036833780820191505090505b5081525060008083815260200190815260200160002060008201518160000160006101000a81548160ff02191690831515021790555060208201518160000160016101000a81548160ff0219169083151502179055506040820151816001019080519060200190610df0929190610e74565b5090505060028190806001815401808255809150506001900390600052602060002001600090919091909150558060038190555080827ff567066553e2a75ae63c3f8cc1b3d7a6ad8f045de5e9572916c57b95a1163176600560069054906101000a900463ffffffff16604051610e67919061194b565b60405180910390a3919050565b828054828255906000526020600020908101928215610eb0579160200282015b82811115610eaf578251825591602001919060010190610e94565b5b509050610ebd9190610ec1565b5090565b5b80821115610eda576000816000905550600101610ec2565b5090565b6000604051905090565b600080fd5b600080fd5b6000819050919050565b610f0581610ef2565b8114610f1057600080fd5b50565b600081359050610f2281610efc565b92915050565b600060208284031215610f3e57610f3d610ee8565b5b6000610f4c84828501610f13565b91505092915050565b60008115159050919050565b610f6a81610f55565b82525050565b6000602082019050610f856000830184610f61565b92915050565b600073ffffffffffffffffffffffffffffffffffffffff82169050919050565b6000610fb682610f8b565b9050919050565b610fc681610fab565b82525050565b610fd581610ef2565b82525050565b600060a082019050610ff06000830188610fbd565b610ffd6020830187610fcc565b61100a6040830186610fcc565b6110176060830185610fcc565b6110246080830184610fcc565b9695505050505050565b600080fd5b6000601f19601f8301169050919050565b7f4e487b7100000000000000000000000000000000000000000000000000000000600052604160045260246000fd5b61107c82611033565b810181811067ffffffffffffffff8211171561109b5761109a611044565b5b80604052505050565b60006110ae610ede565b90506110ba8282611073565b919050565b600067ffffffffffffffff8211156110da576110d9611044565b5b602082029050602081019050919050565b600080fd5b60006111036110fe846110bf565b6110a4565b90508083825260208201905060208402830185811115611126576111256110eb565b5b835b8181101561114f578061113b8882610f13565b845260208401935050602081019050611128565b5050509392505050565b600082601f83011261116e5761116d61102e565b5b813561117e8482602086016110f0565b91505092915050565b6000806040838503121561119e5761119d610ee8565b5b60006111ac85828601610f13565b925050602083013567ffffffffffffffff8111156111cd576111cc610eed565b5b6111d985828601611159565b9150509250929050565b60006020820190506111f86000830184610fcc565b92915050565b60008060006060848603121561121757611216610ee8565b5b600061122586828701610f13565b935050602061123686828701610f13565b925050604061124786828701610f13565b9150509250925092565b60006040820190506112666000830185610f61565b6112736020830184610f61565b9392505050565b6000806040838503121561129157611290610ee8565b5b600061129f85828601610f13565b92505060206112b085828601610f13565b9150509250929050565b600080fd5b60008083601f8401126112d5576112d461102e565b5b8235905067ffffffffffffffff8111156112f2576112f16112ba565b5b60208301915083602082028301111561130e5761130d6110eb565b5b9250929050565b6000806020838503121561132c5761132b610ee8565b5b600083013567ffffffffffffffff81111561134a57611349610eed565b5b611356858286016112bf565b92509250509250929050565b600081519050919050565b600082825260208201905092915050565b6000819050602082019050919050565b61139781610ef2565b82525050565b60006113a9838361138e565b60208301905092915050565b6000602082019050919050565b60006113cd82611362565b6113d7818561136d565b93506113e28361137e565b8060005b838110156114135781516113fa888261139d565b9750611405836113b5565b9250506001810190506113e6565b5085935050505092915050565b6000602082019050818103600083015261143a81846113c2565b905092915050565b60006040820190506114576000830185610f61565b818103602083015261146981846113c2565b90509392505050565b60006040820190506114876000830185610fbd565b6114946020830184610fbd565b9392505050565b7f4e487b7100000000000000000000000000000000000000000000000000000000600052603260045260246000fd5b600082825260208201905092915050565b7f7468657265206973206e6f20726166666c65206174207468697320696e64657860008201527f202f206964000000000000000000000000000000000000000000000000000000602082015250565b60006115376025836114ca565b9150611542826114db565b604082019050919050565b600060208201905081810360008301526115668161152a565b9050919050565b7f6f6e6c7920746865206f776e65722063616e20726166666c6500000000000000600082015250565b60006115a36019836114ca565b91506115ae8261156d565b602082019050919050565b600060208201905081810360008301526115d281611596565b9050919050565b7f612077696e6e65722068617320616c7265616479206265656e2073656c65637460008201527f6564000000000000000000000000000000000000000000000000000000000000602082015250565b60006116356022836114ca565b9150611640826115d9565b604082019050919050565b6000602082019050818103600083015261166481611628565b9050919050565b7f6974277320746f6f206561726c7920746f2073656c65637420612077696e6e6560008201527f7200000000000000000000000000000000000000000000000000000000000000602082015250565b60006116c76021836114ca565b91506116d28261166b565b604082019050919050565b600060208201905081810360008301526116f6816116ba565b9050919050565b7f4e487b7100000000000000000000000000000000000000000000000000000000600052601160045260246000fd5b600061173782610ef2565b915061174283610ef2565b925082821015611755576117546116fd565b5b828203905092915050565b60006040820190506117756000830185610fcc565b6117826020830184610fcc565b9392505050565b600061179482610ef2565b91507fffffffffffffffffffffffffffffffffffffffffffffffffffffffffffffffff8214156117c7576117c66116fd565b5b600182019050919050565b7f72657175657374206e6f7420666f756e64000000000000000000000000000000600082015250565b60006118086011836114ca565b9150611813826117d2565b602082019050919050565b60006020820190508181036000830152611837816117fb565b9050919050565b6000819050919050565b6118518161183e565b82525050565b600067ffffffffffffffff82169050919050565b61187481611857565b82525050565b600061ffff82169050919050565b6118918161187a565b82525050565b600063ffffffff82169050919050565b6118b081611897565b82525050565b600060a0820190506118cb6000830188611848565b6118d8602083018761186b565b6118e56040830186611888565b6118f260608301856118a7565b6118ff60808301846118a7565b9695505050505050565b60008151905061191881610efc565b92915050565b60006020828403121561193457611933610ee8565b5b600061194284828501611909565b91505092915050565b600060208201905061196060008301846118a7565b9291505056fea2646970667358221220faf17be75fd8ecebff7853f22107f55e35d3f5f032a813e552b126837ae77af864736f6c634300080a0033",
  "linkReferences": {},
  "deployedLinkReferences": {}
}