{
  "_format": "hh-sol-artifact-1",
  "contractName": "LuckyLens",
  "sourceName": "contracts/LuckyLens.sol",
  "abi": [
    {
      "inputs": [
        {
          "internalType": "uint64",
          "name": "id",
          "type": "uint64"
        },
        {
          "internalType": "address",
          "name": "_lensHubProxy",
          "type": "address"
        }
      ],
      "stateMutability": "nonpayable",
      "type": "constructor"
    },
    {
      "inputs": [
        {
          "internalType": "address",
          "name": "have",
          "type": "address"
        },
        {
          "internalType": "address",
          "name": "want",
          "type": "address"
        }
      ],
      "name": "OnlyCoordinatorCanFulfill",
      "type": "error"
    },
    {
      "anonymous": false,
      "inputs": [
        {
          "indexed": true,
          "internalType": "address",
          "name": "owner",
          "type": "address"
        },
        {
          "indexed": true,
          "internalType": "uint256",
          "name": "raffleId",
          "type": "uint256"
        },
        {
          "indexed": true,
          "internalType": "uint256",
          "name": "profileId",
          "type": "uint256"
        },
        {
          "indexed": false,
          "internalType": "uint256",
          "name": "pubId",
          "type": "uint256"
        },
        {
          "indexed": false,
          "internalType": "uint48",
          "name": "time",
          "type": "uint48"
        }
      ],
      "name": "PostRaffle",
      "type": "event"
    },
    {
      "anonymous": false,
      "inputs": [
        {
          "indexed": true,
          "internalType": "uint256",
          "name": "raffleId",
          "type": "uint256"
        },
        {
          "indexed": true,
          "internalType": "uint256",
          "name": "requestId",
          "type": "uint256"
        },
        {
          "indexed": true,
          "internalType": "uint256",
          "name": "randomNum",
          "type": "uint256"
        }
      ],
      "name": "RequestFulfilled",
      "type": "event"
    },
    {
      "anonymous": false,
      "inputs": [
        {
          "indexed": true,
          "internalType": "uint256",
          "name": "raffleId",
          "type": "uint256"
        },
        {
          "indexed": true,
          "internalType": "uint256",
          "name": "requestId",
          "type": "uint256"
        },
        {
          "indexed": false,
          "internalType": "uint32",
          "name": "numWords",
          "type": "uint32"
        }
      ],
      "name": "RequestSent",
      "type": "event"
    },
    {
      "inputs": [
        {
          "internalType": "uint256",
          "name": "",
          "type": "uint256"
        }
      ],
      "name": "Raffles",
      "outputs": [
        {
          "internalType": "address",
          "name": "owner",
          "type": "address"
        },
        {
          "internalType": "uint256",
          "name": "profileId",
          "type": "uint256"
        },
        {
          "internalType": "uint256",
          "name": "pubId",
          "type": "uint256"
        },
        {
          "internalType": "uint48",
          "name": "time",
          "type": "uint48"
        },
        {
          "internalType": "uint256",
          "name": "randomNum",
          "type": "uint256"
        }
      ],
      "stateMutability": "view",
      "type": "function"
    },
    {
      "inputs": [
        {
          "internalType": "uint256",
          "name": "raffleId",
          "type": "uint256"
        }
      ],
      "name": "chooseRandomWinner",
      "outputs": [],
      "stateMutability": "nonpayable",
      "type": "function"
    },
    {
      "inputs": [
        {
          "internalType": "uint256[]",
          "name": "raffleIds",
          "type": "uint256[]"
        }
      ],
      "name": "getRandomNums",
      "outputs": [
        {
          "internalType": "uint256[]",
          "name": "",
          "type": "uint256[]"
        }
      ],
      "stateMutability": "view",
      "type": "function"
    },
    {
      "inputs": [
        {
          "internalType": "uint256",
          "name": "_requestId",
          "type": "uint256"
        }
      ],
      "name": "getRequestStatus",
      "outputs": [
        {
          "internalType": "bool",
          "name": "fulfilled",
          "type": "bool"
        },
        {
          "internalType": "uint256[]",
          "name": "randomWords",
          "type": "uint256[]"
        }
      ],
      "stateMutability": "view",
      "type": "function"
    },
    {
      "inputs": [
        {
          "internalType": "uint256",
          "name": "timeInSeconds",
          "type": "uint256"
        }
      ],
      "name": "isAfter",
      "outputs": [
        {
          "internalType": "bool",
          "name": "",
          "type": "bool"
        }
      ],
      "stateMutability": "view",
      "type": "function"
    },
    {
      "inputs": [],
      "name": "lastRequestId",
      "outputs": [
        {
          "internalType": "uint256",
          "name": "",
          "type": "uint256"
        }
      ],
      "stateMutability": "view",
      "type": "function"
    },
    {
      "inputs": [
        {
          "internalType": "uint256",
          "name": "profileId",
          "type": "uint256"
        },
        {
          "internalType": "uint256",
          "name": "pubId",
          "type": "uint256"
        }
      ],
      "name": "newRaffleDrawNow",
      "outputs": [],
      "stateMutability": "nonpayable",
      "type": "function"
    },
    {
      "inputs": [
        {
          "internalType": "uint256",
          "name": "profileId",
          "type": "uint256"
        },
        {
          "internalType": "uint256",
          "name": "pubId",
          "type": "uint256"
        },
        {
          "internalType": "uint48",
          "name": "time",
          "type": "uint48"
        }
      ],
      "name": "postRaffle",
      "outputs": [
        {
          "internalType": "uint256",
          "name": "",
          "type": "uint256"
        }
      ],
      "stateMutability": "nonpayable",
      "type": "function"
    },
    {
      "inputs": [
        {
          "internalType": "uint256",
          "name": "requestId",
          "type": "uint256"
        },
        {
          "internalType": "uint256[]",
          "name": "randomWords",
          "type": "uint256[]"
        }
      ],
      "name": "rawFulfillRandomWords",
      "outputs": [],
      "stateMutability": "nonpayable",
      "type": "function"
    },
    {
      "inputs": [
        {
          "internalType": "uint256",
          "name": "",
          "type": "uint256"
        }
      ],
      "name": "requestIdToRaffleId",
      "outputs": [
        {
          "internalType": "uint256",
          "name": "",
          "type": "uint256"
        }
      ],
      "stateMutability": "view",
      "type": "function"
    },
    {
      "inputs": [
        {
          "internalType": "uint256",
          "name": "",
          "type": "uint256"
        }
      ],
      "name": "requestIds",
      "outputs": [
        {
          "internalType": "uint256",
          "name": "",
          "type": "uint256"
        }
      ],
      "stateMutability": "view",
      "type": "function"
    },
    {
      "inputs": [
        {
          "internalType": "uint256",
          "name": "",
          "type": "uint256"
        }
      ],
      "name": "s_requests",
      "outputs": [
        {
          "internalType": "bool",
          "name": "fulfilled",
          "type": "bool"
        },
        {
          "internalType": "bool",
          "name": "exists",
          "type": "bool"
        }
      ],
      "stateMutability": "view",
      "type": "function"
    },
    {
      "inputs": [],
      "name": "timestamp",
      "outputs": [
        {
          "internalType": "uint256",
          "name": "",
          "type": "uint256"
        }
      ],
      "stateMutability": "view",
      "type": "function"
    },
    {
      "inputs": [],
      "name": "totalRaffles",
      "outputs": [
        {
          "internalType": "uint256",
          "name": "",
          "type": "uint256"
        }
      ],
      "stateMutability": "view",
      "type": "function"
    }
  ],
  "bytecode": "0x60c06040527f4b09e658ed251bcafeebbc69400383d49f344ace09b9576fe248bb02c003fe9f60001b600455620186a0600560006101000a81548163ffffffff021916908363ffffffff1602179055506003600560046101000a81548161ffff021916908361ffff1602179055506001600560066101000a81548163ffffffff021916908363ffffffff1602179055503480156200009c57600080fd5b5060405162001d2738038062001d278339818101604052810190620000c2919062000277565b81737a1bac17ccc5b313516c5e16fb24f7659aa5ebed8073ffffffffffffffffffffffffffffffffffffffff1660808173ffffffffffffffffffffffffffffffffffffffff168152505050737a1bac17ccc5b313516c5e16fb24f7659aa5ebed600160006101000a81548173ffffffffffffffffffffffffffffffffffffffff021916908373ffffffffffffffffffffffffffffffffffffffff16021790555080600160146101000a81548167ffffffffffffffff021916908367ffffffffffffffff160217905550508073ffffffffffffffffffffffffffffffffffffffff1660a08173ffffffffffffffffffffffffffffffffffffffff16815250505050620002be565b600080fd5b600067ffffffffffffffff82169050919050565b620001ec81620001cd565b8114620001f857600080fd5b50565b6000815190506200020c81620001e1565b92915050565b600073ffffffffffffffffffffffffffffffffffffffff82169050919050565b60006200023f8262000212565b9050919050565b620002518162000232565b81146200025d57600080fd5b50565b600081519050620002718162000246565b92915050565b60008060408385031215620002915762000290620001c8565b5b6000620002a185828601620001fb565b9250506020620002b48582860162000260565b9150509250929050565b60805160a051611a3f620002e860003960005050600081816103a901526103fd0152611a3f6000f3fe608060405234801561001057600080fd5b50600436106100ea5760003560e01c80638a41d3e31161008c578063b80777ea11610066578063b80777ea14610286578063d23f5cd3146102a4578063d8a4676f146102d4578063fc2a88c314610305576100ea565b80638a41d3e314610209578063a168fa8914610239578063adcb68e81461026a576100ea565b80633619283d116100c85780633619283d1461016f5780633748312f1461018b578063550ac75a146101a95780638796ba8c146101d9576100ea565b806319956d2f146100ef5780631d5ccd9b1461011f5780631fe543e314610153575b600080fd5b61010960048036038101906101049190610f7e565b610323565b6040516101169190610fc6565b60405180910390f35b61013960048036038101906101349190610f7e565b61032f565b60405161014a959493929190611052565b60405180910390f35b61016d600480360381019061016891906111fe565b6103a7565b005b61018960048036038101906101849190610f7e565b610467565b005b6101936106e2565b6040516101a0919061125a565b60405180910390f35b6101c360048036038101906101be91906112a1565b6106ef565b6040516101d0919061125a565b60405180910390f35b6101f360048036038101906101ee9190610f7e565b610867565b604051610200919061125a565b60405180910390f35b610223600480360381019061021e9190610f7e565b61088b565b604051610230919061125a565b60405180910390f35b610253600480360381019061024e9190610f7e565b6108a3565b6040516102619291906112f4565b60405180910390f35b610284600480360381019061027f919061131d565b6108e1565b005b61028e6108ff565b60405161029b919061125a565b60405180910390f35b6102be60048036038101906102b991906113b8565b610907565b6040516102cb91906114c3565b60405180910390f35b6102ee60048036038101906102e99190610f7e565b6109e3565b6040516102fc9291906114e5565b60405180910390f35b61030d610b0c565b60405161031a919061125a565b60405180910390f35b60008142119050919050565b6007818154811061033f57600080fd5b90600052602060002090600502016000915090508060000160009054906101000a900473ffffffffffffffffffffffffffffffffffffffff16908060010154908060020154908060030160009054906101000a900465ffffffffffff16908060040154905085565b7f000000000000000000000000000000000000000000000000000000000000000073ffffffffffffffffffffffffffffffffffffffff163373ffffffffffffffffffffffffffffffffffffffff161461045957337f00000000000000000000000000000000000000000000000000000000000000006040517f1cf993f4000000000000000000000000000000000000000000000000000000008152600401610450929190611515565b60405180910390fd5b6104638282610b12565b5050565b600073ffffffffffffffffffffffffffffffffffffffff16600782815481106104935761049261153e565b5b906000526020600020906005020160000160009054906101000a900473ffffffffffffffffffffffffffffffffffffffff1673ffffffffffffffffffffffffffffffffffffffff16141561051c576040517f08c379a0000000000000000000000000000000000000000000000000000000008152600401610513906115f0565b60405180910390fd5b600781815481106105305761052f61153e565b5b906000526020600020906005020160000160009054906101000a900473ffffffffffffffffffffffffffffffffffffffff1673ffffffffffffffffffffffffffffffffffffffff163373ffffffffffffffffffffffffffffffffffffffff16146105cf576040517f08c379a00000000000000000000000000000000000000000000000000000000081526004016105c69061165c565b60405180910390fd5b6000600782815481106105e5576105e461153e565b5b90600052602060002090600502016004015414610637576040517f08c379a000000000000000000000000000000000000000000000000000000000815260040161062e906116ee565b60405180910390fd5b6007818154811061064b5761064a61153e565b5b906000526020600020906005020160030160009054906101000a900465ffffffffffff1665ffffffffffff164210156106b9576040517f08c379a00000000000000000000000000000000000000000000000000000000081526004016106b090611780565b60405180910390fd5b60006106c482610c78565b90508160066000838152602001908152602001600020819055505050565b6000600780549050905090565b600060076040518060a001604052803373ffffffffffffffffffffffffffffffffffffffff1681526020018681526020018581526020018465ffffffffffff1681526020016000815250908060018154018082558091505060019003906000526020600020906005020160009091909190915060008201518160000160006101000a81548173ffffffffffffffffffffffffffffffffffffffff021916908373ffffffffffffffffffffffffffffffffffffffff160217905550602082015181600101556040820151816002015560608201518160030160006101000a81548165ffffffffffff021916908365ffffffffffff1602179055506080820151816004015550506000600160078054905061080891906117cf565b905084813373ffffffffffffffffffffffffffffffffffffffff167ffeaba8c11b54e3634f3b8c188042909e769cce8afe5d2ade13643f45a62902a78787604051610854929190611803565b60405180910390a4809150509392505050565b6002818154811061087757600080fd5b906000526020600020016000915090505481565b60066020528060005260406000206000915090505481565b60006020528060005260406000206000915090508060000160009054906101000a900460ff16908060000160019054906101000a900460ff16905082565b60006108ef838360016106ef565b90506108fa81610467565b505050565b600042905090565b606060008383905067ffffffffffffffff811115610928576109276110bb565b5b6040519080825280602002602001820160405280156109565781602001602082028036833780820191505090505b50905060005b848490508110156109d857600785858381811061097c5761097b61153e565b5b90506020020135815481106109945761099361153e565b5b9060005260206000209060050201600401548282815181106109b9576109b861153e565b5b60200260200101818152505080806109d09061182c565b91505061095c565b508091505092915050565b6000606060008084815260200190815260200160002060000160019054906101000a900460ff16610a49576040517f08c379a0000000000000000000000000000000000000000000000000000000008152600401610a40906118c1565b60405180910390fd5b60008060008581526020019081526020016000206040518060600160405290816000820160009054906101000a900460ff161515151581526020016000820160019054906101000a900460ff1615151515815260200160018201805480602002602001604051908101604052809291908181526020018280548015610aed57602002820191906000526020600020905b815481526020019060010190808311610ad9575b5050505050815250509050806000015181604001519250925050915091565b60035481565b60008083815260200190815260200160002060000160019054906101000a900460ff16610b74576040517f08c379a0000000000000000000000000000000000000000000000000000000008152600401610b6b906118c1565b60405180910390fd5b600160008084815260200190815260200160002060000160006101000a81548160ff021916908315150217905550806000808481526020019081526020016000206001019080519060200190610bcb929190610eca565b5060006006600084815260200190815260200160002054905081600081518110610bf857610bf761153e565b5b602002602001015160078281548110610c1457610c1361153e565b5b90600052602060002090600502016004018190555081600081518110610c3d57610c3c61153e565b5b602002602001015183827f8a06e59f8bcf6fd7f3d4f78e40f7271ef279eaf8e0fc07df107169ccdc05ab6560405160405180910390a4505050565b6000600160009054906101000a900473ffffffffffffffffffffffffffffffffffffffff1673ffffffffffffffffffffffffffffffffffffffff16635d3b1d30600454600160149054906101000a900467ffffffffffffffff16600560049054906101000a900461ffff16600560009054906101000a900463ffffffff16600560069054906101000a900463ffffffff166040518663ffffffff1660e01b8152600401610d29959493929190611959565b6020604051808303816000875af1158015610d48573d6000803e3d6000fd5b505050506040513d601f19601f82011682018060405250810190610d6c91906119c1565b90506040518060600160405280600015158152602001600115158152602001600067ffffffffffffffff811115610da657610da56110bb565b5b604051908082528060200260200182016040528015610dd45781602001602082028036833780820191505090505b5081525060008083815260200190815260200160002060008201518160000160006101000a81548160ff02191690831515021790555060208201518160000160016101000a81548160ff0219169083151502179055506040820151816001019080519060200190610e46929190610eca565b5090505060028190806001815401808255809150506001900390600052602060002001600090919091909150558060038190555080827ff567066553e2a75ae63c3f8cc1b3d7a6ad8f045de5e9572916c57b95a1163176600560069054906101000a900463ffffffff16604051610ebd91906119ee565b60405180910390a3919050565b828054828255906000526020600020908101928215610f06579160200282015b82811115610f05578251825591602001919060010190610eea565b5b509050610f139190610f17565b5090565b5b80821115610f30576000816000905550600101610f18565b5090565b6000604051905090565b600080fd5b600080fd5b6000819050919050565b610f5b81610f48565b8114610f6657600080fd5b50565b600081359050610f7881610f52565b92915050565b600060208284031215610f9457610f93610f3e565b5b6000610fa284828501610f69565b91505092915050565b60008115159050919050565b610fc081610fab565b82525050565b6000602082019050610fdb6000830184610fb7565b92915050565b600073ffffffffffffffffffffffffffffffffffffffff82169050919050565b600061100c82610fe1565b9050919050565b61101c81611001565b82525050565b61102b81610f48565b82525050565b600065ffffffffffff82169050919050565b61104c81611031565b82525050565b600060a0820190506110676000830188611013565b6110746020830187611022565b6110816040830186611022565b61108e6060830185611043565b61109b6080830184611022565b9695505050505050565b600080fd5b6000601f19601f8301169050919050565b7f4e487b7100000000000000000000000000000000000000000000000000000000600052604160045260246000fd5b6110f3826110aa565b810181811067ffffffffffffffff82111715611112576111116110bb565b5b80604052505050565b6000611125610f34565b905061113182826110ea565b919050565b600067ffffffffffffffff821115611151576111506110bb565b5b602082029050602081019050919050565b600080fd5b600061117a61117584611136565b61111b565b9050808382526020820190506020840283018581111561119d5761119c611162565b5b835b818110156111c657806111b28882610f69565b84526020840193505060208101905061119f565b5050509392505050565b600082601f8301126111e5576111e46110a5565b5b81356111f5848260208601611167565b91505092915050565b6000806040838503121561121557611214610f3e565b5b600061122385828601610f69565b925050602083013567ffffffffffffffff81111561124457611243610f43565b5b611250858286016111d0565b9150509250929050565b600060208201905061126f6000830184611022565b92915050565b61127e81611031565b811461128957600080fd5b50565b60008135905061129b81611275565b92915050565b6000806000606084860312156112ba576112b9610f3e565b5b60006112c886828701610f69565b93505060206112d986828701610f69565b92505060406112ea8682870161128c565b9150509250925092565b60006040820190506113096000830185610fb7565b6113166020830184610fb7565b9392505050565b6000806040838503121561133457611333610f3e565b5b600061134285828601610f69565b925050602061135385828601610f69565b9150509250929050565b600080fd5b60008083601f840112611378576113776110a5565b5b8235905067ffffffffffffffff8111156113955761139461135d565b5b6020830191508360208202830111156113b1576113b0611162565b5b9250929050565b600080602083850312156113cf576113ce610f3e565b5b600083013567ffffffffffffffff8111156113ed576113ec610f43565b5b6113f985828601611362565b92509250509250929050565b600081519050919050565b600082825260208201905092915050565b6000819050602082019050919050565b61143a81610f48565b82525050565b600061144c8383611431565b60208301905092915050565b6000602082019050919050565b600061147082611405565b61147a8185611410565b935061148583611421565b8060005b838110156114b657815161149d8882611440565b97506114a883611458565b925050600181019050611489565b5085935050505092915050565b600060208201905081810360008301526114dd8184611465565b905092915050565b60006040820190506114fa6000830185610fb7565b818103602083015261150c8184611465565b90509392505050565b600060408201905061152a6000830185611013565b6115376020830184611013565b9392505050565b7f4e487b7100000000000000000000000000000000000000000000000000000000600052603260045260246000fd5b600082825260208201905092915050565b7f7468657265206973206e6f20726166666c65206174207468697320696e64657860008201527f202f206964000000000000000000000000000000000000000000000000000000602082015250565b60006115da60258361156d565b91506115e58261157e565b604082019050919050565b60006020820190508181036000830152611609816115cd565b9050919050565b7f6f6e6c7920746865206f776e65722063616e20726166666c6500000000000000600082015250565b600061164660198361156d565b915061165182611610565b602082019050919050565b6000602082019050818103600083015261167581611639565b9050919050565b7f612077696e6e65722068617320616c7265616479206265656e2073656c65637460008201527f6564000000000000000000000000000000000000000000000000000000000000602082015250565b60006116d860228361156d565b91506116e38261167c565b604082019050919050565b60006020820190508181036000830152611707816116cb565b9050919050565b7f6974277320746f6f206561726c7920746f2073656c65637420612077696e6e6560008201527f7200000000000000000000000000000000000000000000000000000000000000602082015250565b600061176a60218361156d565b91506117758261170e565b604082019050919050565b600060208201905081810360008301526117998161175d565b9050919050565b7f4e487b7100000000000000000000000000000000000000000000000000000000600052601160045260246000fd5b60006117da82610f48565b91506117e583610f48565b9250828210156117f8576117f76117a0565b5b828203905092915050565b60006040820190506118186000830185611022565b6118256020830184611043565b9392505050565b600061183782610f48565b91507fffffffffffffffffffffffffffffffffffffffffffffffffffffffffffffffff82141561186a576118696117a0565b5b600182019050919050565b7f72657175657374206e6f7420666f756e64000000000000000000000000000000600082015250565b60006118ab60118361156d565b91506118b682611875565b602082019050919050565b600060208201905081810360008301526118da8161189e565b9050919050565b6000819050919050565b6118f4816118e1565b82525050565b600067ffffffffffffffff82169050919050565b611917816118fa565b82525050565b600061ffff82169050919050565b6119348161191d565b82525050565b600063ffffffff82169050919050565b6119538161193a565b82525050565b600060a08201905061196e60008301886118eb565b61197b602083018761190e565b611988604083018661192b565b611995606083018561194a565b6119a2608083018461194a565b9695505050505050565b6000815190506119bb81610f52565b92915050565b6000602082840312156119d7576119d6610f3e565b5b60006119e5848285016119ac565b91505092915050565b6000602082019050611a03600083018461194a565b9291505056fea2646970667358221220ae1fa23751a5c77f93e8cf7fc2213fc4464b80b577c9f511c572b6ca4090193b64736f6c634300080a0033",
  "linkReferences": {},
  "deployedLinkReferences": {}
}