{
  "_format": "hh-sol-artifact-1",
  "contractName": "LuckyLens",
  "sourceName": "contracts/LuckyLens.sol",
  "abi": [
    {
      "inputs": [
        {
          "internalType": "uint64",
          "name": "id",
          "type": "uint64"
        },
        {
          "internalType": "address",
          "name": "_lensHubProxy",
          "type": "address"
        }
      ],
      "stateMutability": "nonpayable",
      "type": "constructor"
    },
    {
      "inputs": [
        {
          "internalType": "address",
          "name": "have",
          "type": "address"
        },
        {
          "internalType": "address",
          "name": "want",
          "type": "address"
        }
      ],
      "name": "OnlyCoordinatorCanFulfill",
      "type": "error"
    },
    {
      "anonymous": false,
      "inputs": [
        {
          "indexed": true,
          "internalType": "address",
          "name": "owner",
          "type": "address"
        },
        {
          "indexed": true,
          "internalType": "uint256",
          "name": "raffleId",
          "type": "uint256"
        },
        {
          "indexed": true,
          "internalType": "uint256",
          "name": "profileId",
          "type": "uint256"
        },
        {
          "indexed": false,
          "internalType": "uint256",
          "name": "pubId",
          "type": "uint256"
        },
        {
          "indexed": false,
          "internalType": "uint48",
          "name": "time",
          "type": "uint48"
        }
      ],
      "name": "PostRaffle",
      "type": "event"
    },
    {
      "anonymous": false,
      "inputs": [
        {
          "indexed": true,
          "internalType": "uint256",
          "name": "raffleId",
          "type": "uint256"
        },
        {
          "indexed": true,
          "internalType": "uint256",
          "name": "requestId",
          "type": "uint256"
        },
        {
          "indexed": true,
          "internalType": "uint256",
          "name": "randomNum",
          "type": "uint256"
        }
      ],
      "name": "RequestFulfilled",
      "type": "event"
    },
    {
      "anonymous": false,
      "inputs": [
        {
          "indexed": true,
          "internalType": "uint256",
          "name": "raffleId",
          "type": "uint256"
        },
        {
          "indexed": true,
          "internalType": "uint256",
          "name": "requestId",
          "type": "uint256"
        },
        {
          "indexed": false,
          "internalType": "uint32",
          "name": "numWords",
          "type": "uint32"
        }
      ],
      "name": "RequestSent",
      "type": "event"
    },
    {
      "inputs": [
        {
          "internalType": "uint256",
          "name": "",
          "type": "uint256"
        }
      ],
      "name": "Raffles",
      "outputs": [
        {
          "internalType": "address",
          "name": "owner",
          "type": "address"
        },
        {
          "internalType": "uint256",
          "name": "profileId",
          "type": "uint256"
        },
        {
          "internalType": "uint256",
          "name": "pubId",
          "type": "uint256"
        },
        {
          "internalType": "uint48",
          "name": "time",
          "type": "uint48"
        },
        {
          "internalType": "uint256",
          "name": "randomNum",
          "type": "uint256"
        }
      ],
      "stateMutability": "view",
      "type": "function"
    },
    {
      "inputs": [
        {
          "internalType": "uint256",
          "name": "raffleId",
          "type": "uint256"
        }
      ],
      "name": "chooseRandomWinner",
      "outputs": [],
      "stateMutability": "nonpayable",
      "type": "function"
    },
    {
      "inputs": [
        {
          "internalType": "uint256[]",
          "name": "raffleIds",
          "type": "uint256[]"
        }
      ],
      "name": "getRandomNums",
      "outputs": [
        {
          "internalType": "uint256[]",
          "name": "",
          "type": "uint256[]"
        }
      ],
      "stateMutability": "view",
      "type": "function"
    },
    {
      "inputs": [
        {
          "internalType": "uint256",
          "name": "_requestId",
          "type": "uint256"
        }
      ],
      "name": "getRequestStatus",
      "outputs": [
        {
          "internalType": "bool",
          "name": "fulfilled",
          "type": "bool"
        },
        {
          "internalType": "uint256[]",
          "name": "randomWords",
          "type": "uint256[]"
        }
      ],
      "stateMutability": "view",
      "type": "function"
    },
    {
      "inputs": [],
      "name": "lastRequestId",
      "outputs": [
        {
          "internalType": "uint256",
          "name": "",
          "type": "uint256"
        }
      ],
      "stateMutability": "view",
      "type": "function"
    },
    {
      "inputs": [
        {
          "internalType": "uint256",
          "name": "profileId",
          "type": "uint256"
        },
        {
          "internalType": "uint256",
          "name": "pubId",
          "type": "uint256"
        }
      ],
      "name": "newRaffleDrawNow",
      "outputs": [],
      "stateMutability": "nonpayable",
      "type": "function"
    },
    {
      "inputs": [
        {
          "internalType": "uint256",
          "name": "profileId",
          "type": "uint256"
        },
        {
          "internalType": "uint256",
          "name": "pubId",
          "type": "uint256"
        },
        {
          "internalType": "uint48",
          "name": "time",
          "type": "uint48"
        }
      ],
      "name": "postRaffle",
      "outputs": [
        {
          "internalType": "uint256",
          "name": "",
          "type": "uint256"
        }
      ],
      "stateMutability": "nonpayable",
      "type": "function"
    },
    {
      "inputs": [
        {
          "internalType": "uint256",
          "name": "requestId",
          "type": "uint256"
        },
        {
          "internalType": "uint256[]",
          "name": "randomWords",
          "type": "uint256[]"
        }
      ],
      "name": "rawFulfillRandomWords",
      "outputs": [],
      "stateMutability": "nonpayable",
      "type": "function"
    },
    {
      "inputs": [
        {
          "internalType": "uint256",
          "name": "",
          "type": "uint256"
        }
      ],
      "name": "requestIdToRaffleId",
      "outputs": [
        {
          "internalType": "uint256",
          "name": "",
          "type": "uint256"
        }
      ],
      "stateMutability": "view",
      "type": "function"
    },
    {
      "inputs": [
        {
          "internalType": "uint256",
          "name": "",
          "type": "uint256"
        }
      ],
      "name": "requestIds",
      "outputs": [
        {
          "internalType": "uint256",
          "name": "",
          "type": "uint256"
        }
      ],
      "stateMutability": "view",
      "type": "function"
    },
    {
      "inputs": [
        {
          "internalType": "uint256",
          "name": "",
          "type": "uint256"
        }
      ],
      "name": "s_requests",
      "outputs": [
        {
          "internalType": "bool",
          "name": "fulfilled",
          "type": "bool"
        },
        {
          "internalType": "bool",
          "name": "exists",
          "type": "bool"
        }
      ],
      "stateMutability": "view",
      "type": "function"
    }
  ],
  "bytecode": "0x60c06040527f4b09e658ed251bcafeebbc69400383d49f344ace09b9576fe248bb02c003fe9f60001b600455620186a0600560006101000a81548163ffffffff021916908363ffffffff1602179055506003600560046101000a81548161ffff021916908361ffff1602179055506001600560066101000a81548163ffffffff021916908363ffffffff1602179055503480156200009c57600080fd5b5060405162001c3e38038062001c3e8339818101604052810190620000c2919062000277565b81737a1bac17ccc5b313516c5e16fb24f7659aa5ebed8073ffffffffffffffffffffffffffffffffffffffff1660808173ffffffffffffffffffffffffffffffffffffffff168152505050737a1bac17ccc5b313516c5e16fb24f7659aa5ebed600160006101000a81548173ffffffffffffffffffffffffffffffffffffffff021916908373ffffffffffffffffffffffffffffffffffffffff16021790555080600160146101000a81548167ffffffffffffffff021916908367ffffffffffffffff160217905550508073ffffffffffffffffffffffffffffffffffffffff1660a08173ffffffffffffffffffffffffffffffffffffffff16815250505050620002be565b600080fd5b600067ffffffffffffffff82169050919050565b620001ec81620001cd565b8114620001f857600080fd5b50565b6000815190506200020c81620001e1565b92915050565b600073ffffffffffffffffffffffffffffffffffffffff82169050919050565b60006200023f8262000212565b9050919050565b620002518162000232565b81146200025d57600080fd5b50565b600081519050620002718162000246565b92915050565b60008060408385031215620002915762000290620001c8565b5b6000620002a185828601620001fb565b9250506020620002b48582860162000260565b9150509250929050565b60805160a051611956620002e860003960005050600081816102f0015261034401526119566000f3fe608060405234801561001057600080fd5b50600436106100a95760003560e01c80638a41d3e3116100715780638a41d3e31461017a578063a168fa89146101aa578063adcb68e8146101db578063d23f5cd3146101f7578063d8a4676f14610227578063fc2a88c314610258576100a9565b80631d5ccd9b146100ae5780631fe543e3146100e25780633619283d146100fe578063550ac75a1461011a5780638796ba8c1461014a575b600080fd5b6100c860048036038101906100c39190610eb0565b610276565b6040516100d9959493929190610f4e565b60405180910390f35b6100fc60048036038101906100f791906110fa565b6102ee565b005b61011860048036038101906101139190610eb0565b6103ae565b005b610134600480360381019061012f9190611182565b610629565b60405161014191906111d5565b60405180910390f35b610164600480360381019061015f9190610eb0565b6107a1565b60405161017191906111d5565b60405180910390f35b610194600480360381019061018f9190610eb0565b6107c5565b6040516101a191906111d5565b60405180910390f35b6101c460048036038101906101bf9190610eb0565b6107dd565b6040516101d292919061120b565b60405180910390f35b6101f560048036038101906101f09190611234565b61081b565b005b610211600480360381019061020c91906112cf565b610839565b60405161021e91906113da565b60405180910390f35b610241600480360381019061023c9190610eb0565b610915565b60405161024f9291906113fc565b60405180910390f35b610260610a3e565b60405161026d91906111d5565b60405180910390f35b6007818154811061028657600080fd5b90600052602060002090600502016000915090508060000160009054906101000a900473ffffffffffffffffffffffffffffffffffffffff16908060010154908060020154908060030160009054906101000a900465ffffffffffff16908060040154905085565b7f000000000000000000000000000000000000000000000000000000000000000073ffffffffffffffffffffffffffffffffffffffff163373ffffffffffffffffffffffffffffffffffffffff16146103a057337f00000000000000000000000000000000000000000000000000000000000000006040517f1cf993f400000000000000000000000000000000000000000000000000000000815260040161039792919061142c565b60405180910390fd5b6103aa8282610a44565b5050565b600073ffffffffffffffffffffffffffffffffffffffff16600782815481106103da576103d9611455565b5b906000526020600020906005020160000160009054906101000a900473ffffffffffffffffffffffffffffffffffffffff1673ffffffffffffffffffffffffffffffffffffffff161415610463576040517f08c379a000000000000000000000000000000000000000000000000000000000815260040161045a90611507565b60405180910390fd5b6007818154811061047757610476611455565b5b906000526020600020906005020160000160009054906101000a900473ffffffffffffffffffffffffffffffffffffffff1673ffffffffffffffffffffffffffffffffffffffff163373ffffffffffffffffffffffffffffffffffffffff1614610516576040517f08c379a000000000000000000000000000000000000000000000000000000000815260040161050d90611573565b60405180910390fd5b60006007828154811061052c5761052b611455565b5b9060005260206000209060050201600401541461057e576040517f08c379a000000000000000000000000000000000000000000000000000000000815260040161057590611605565b60405180910390fd5b6007818154811061059257610591611455565b5b906000526020600020906005020160030160009054906101000a900465ffffffffffff1665ffffffffffff16421015610600576040517f08c379a00000000000000000000000000000000000000000000000000000000081526004016105f790611697565b60405180910390fd5b600061060b82610baa565b90508160066000838152602001908152602001600020819055505050565b600060076040518060a001604052803373ffffffffffffffffffffffffffffffffffffffff1681526020018681526020018581526020018465ffffffffffff1681526020016000815250908060018154018082558091505060019003906000526020600020906005020160009091909190915060008201518160000160006101000a81548173ffffffffffffffffffffffffffffffffffffffff021916908373ffffffffffffffffffffffffffffffffffffffff160217905550602082015181600101556040820151816002015560608201518160030160006101000a81548165ffffffffffff021916908365ffffffffffff1602179055506080820151816004015550506000600160078054905061074291906116e6565b905084813373ffffffffffffffffffffffffffffffffffffffff167ffeaba8c11b54e3634f3b8c188042909e769cce8afe5d2ade13643f45a62902a7878760405161078e92919061171a565b60405180910390a4809150509392505050565b600281815481106107b157600080fd5b906000526020600020016000915090505481565b60066020528060005260406000206000915090505481565b60006020528060005260406000206000915090508060000160009054906101000a900460ff16908060000160019054906101000a900460ff16905082565b600061082983836001610629565b9050610834816103ae565b505050565b606060008383905067ffffffffffffffff81111561085a57610859610fb7565b5b6040519080825280602002602001820160405280156108885781602001602082028036833780820191505090505b50905060005b8484905081101561090a5760078585838181106108ae576108ad611455565b5b90506020020135815481106108c6576108c5611455565b5b9060005260206000209060050201600401548282815181106108eb576108ea611455565b5b602002602001018181525050808061090290611743565b91505061088e565b508091505092915050565b6000606060008084815260200190815260200160002060000160019054906101000a900460ff1661097b576040517f08c379a0000000000000000000000000000000000000000000000000000000008152600401610972906117d8565b60405180910390fd5b60008060008581526020019081526020016000206040518060600160405290816000820160009054906101000a900460ff161515151581526020016000820160019054906101000a900460ff1615151515815260200160018201805480602002602001604051908101604052809291908181526020018280548015610a1f57602002820191906000526020600020905b815481526020019060010190808311610a0b575b5050505050815250509050806000015181604001519250925050915091565b60035481565b60008083815260200190815260200160002060000160019054906101000a900460ff16610aa6576040517f08c379a0000000000000000000000000000000000000000000000000000000008152600401610a9d906117d8565b60405180910390fd5b600160008084815260200190815260200160002060000160006101000a81548160ff021916908315150217905550806000808481526020019081526020016000206001019080519060200190610afd929190610dfc565b5060006006600084815260200190815260200160002054905081600081518110610b2a57610b29611455565b5b602002602001015160078281548110610b4657610b45611455565b5b90600052602060002090600502016004018190555081600081518110610b6f57610b6e611455565b5b602002602001015183827f8a06e59f8bcf6fd7f3d4f78e40f7271ef279eaf8e0fc07df107169ccdc05ab6560405160405180910390a4505050565b6000600160009054906101000a900473ffffffffffffffffffffffffffffffffffffffff1673ffffffffffffffffffffffffffffffffffffffff16635d3b1d30600454600160149054906101000a900467ffffffffffffffff16600560049054906101000a900461ffff16600560009054906101000a900463ffffffff16600560069054906101000a900463ffffffff166040518663ffffffff1660e01b8152600401610c5b959493929190611870565b6020604051808303816000875af1158015610c7a573d6000803e3d6000fd5b505050506040513d601f19601f82011682018060405250810190610c9e91906118d8565b90506040518060600160405280600015158152602001600115158152602001600067ffffffffffffffff811115610cd857610cd7610fb7565b5b604051908082528060200260200182016040528015610d065781602001602082028036833780820191505090505b5081525060008083815260200190815260200160002060008201518160000160006101000a81548160ff02191690831515021790555060208201518160000160016101000a81548160ff0219169083151502179055506040820151816001019080519060200190610d78929190610dfc565b5090505060028190806001815401808255809150506001900390600052602060002001600090919091909150558060038190555080827ff567066553e2a75ae63c3f8cc1b3d7a6ad8f045de5e9572916c57b95a1163176600560069054906101000a900463ffffffff16604051610def9190611905565b60405180910390a3919050565b828054828255906000526020600020908101928215610e38579160200282015b82811115610e37578251825591602001919060010190610e1c565b5b509050610e459190610e49565b5090565b5b80821115610e62576000816000905550600101610e4a565b5090565b6000604051905090565b600080fd5b600080fd5b6000819050919050565b610e8d81610e7a565b8114610e9857600080fd5b50565b600081359050610eaa81610e84565b92915050565b600060208284031215610ec657610ec5610e70565b5b6000610ed484828501610e9b565b91505092915050565b600073ffffffffffffffffffffffffffffffffffffffff82169050919050565b6000610f0882610edd565b9050919050565b610f1881610efd565b82525050565b610f2781610e7a565b82525050565b600065ffffffffffff82169050919050565b610f4881610f2d565b82525050565b600060a082019050610f636000830188610f0f565b610f706020830187610f1e565b610f7d6040830186610f1e565b610f8a6060830185610f3f565b610f976080830184610f1e565b9695505050505050565b600080fd5b6000601f19601f8301169050919050565b7f4e487b7100000000000000000000000000000000000000000000000000000000600052604160045260246000fd5b610fef82610fa6565b810181811067ffffffffffffffff8211171561100e5761100d610fb7565b5b80604052505050565b6000611021610e66565b905061102d8282610fe6565b919050565b600067ffffffffffffffff82111561104d5761104c610fb7565b5b602082029050602081019050919050565b600080fd5b600061107661107184611032565b611017565b905080838252602082019050602084028301858111156110995761109861105e565b5b835b818110156110c257806110ae8882610e9b565b84526020840193505060208101905061109b565b5050509392505050565b600082601f8301126110e1576110e0610fa1565b5b81356110f1848260208601611063565b91505092915050565b6000806040838503121561111157611110610e70565b5b600061111f85828601610e9b565b925050602083013567ffffffffffffffff8111156111405761113f610e75565b5b61114c858286016110cc565b9150509250929050565b61115f81610f2d565b811461116a57600080fd5b50565b60008135905061117c81611156565b92915050565b60008060006060848603121561119b5761119a610e70565b5b60006111a986828701610e9b565b93505060206111ba86828701610e9b565b92505060406111cb8682870161116d565b9150509250925092565b60006020820190506111ea6000830184610f1e565b92915050565b60008115159050919050565b611205816111f0565b82525050565b600060408201905061122060008301856111fc565b61122d60208301846111fc565b9392505050565b6000806040838503121561124b5761124a610e70565b5b600061125985828601610e9b565b925050602061126a85828601610e9b565b9150509250929050565b600080fd5b60008083601f84011261128f5761128e610fa1565b5b8235905067ffffffffffffffff8111156112ac576112ab611274565b5b6020830191508360208202830111156112c8576112c761105e565b5b9250929050565b600080602083850312156112e6576112e5610e70565b5b600083013567ffffffffffffffff81111561130457611303610e75565b5b61131085828601611279565b92509250509250929050565b600081519050919050565b600082825260208201905092915050565b6000819050602082019050919050565b61135181610e7a565b82525050565b60006113638383611348565b60208301905092915050565b6000602082019050919050565b60006113878261131c565b6113918185611327565b935061139c83611338565b8060005b838110156113cd5781516113b48882611357565b97506113bf8361136f565b9250506001810190506113a0565b5085935050505092915050565b600060208201905081810360008301526113f4818461137c565b905092915050565b600060408201905061141160008301856111fc565b8181036020830152611423818461137c565b90509392505050565b60006040820190506114416000830185610f0f565b61144e6020830184610f0f565b9392505050565b7f4e487b7100000000000000000000000000000000000000000000000000000000600052603260045260246000fd5b600082825260208201905092915050565b7f7468657265206973206e6f20726166666c65206174207468697320696e64657860008201527f202f206964000000000000000000000000000000000000000000000000000000602082015250565b60006114f1602583611484565b91506114fc82611495565b604082019050919050565b60006020820190508181036000830152611520816114e4565b9050919050565b7f6f6e6c7920746865206f776e65722063616e20726166666c6500000000000000600082015250565b600061155d601983611484565b915061156882611527565b602082019050919050565b6000602082019050818103600083015261158c81611550565b9050919050565b7f612077696e6e65722068617320616c7265616479206265656e2073656c65637460008201527f6564000000000000000000000000000000000000000000000000000000000000602082015250565b60006115ef602283611484565b91506115fa82611593565b604082019050919050565b6000602082019050818103600083015261161e816115e2565b9050919050565b7f6974277320746f6f206561726c7920746f2073656c65637420612077696e6e6560008201527f7200000000000000000000000000000000000000000000000000000000000000602082015250565b6000611681602183611484565b915061168c82611625565b604082019050919050565b600060208201905081810360008301526116b081611674565b9050919050565b7f4e487b7100000000000000000000000000000000000000000000000000000000600052601160045260246000fd5b60006116f182610e7a565b91506116fc83610e7a565b92508282101561170f5761170e6116b7565b5b828203905092915050565b600060408201905061172f6000830185610f1e565b61173c6020830184610f3f565b9392505050565b600061174e82610e7a565b91507fffffffffffffffffffffffffffffffffffffffffffffffffffffffffffffffff821415611781576117806116b7565b5b600182019050919050565b7f72657175657374206e6f7420666f756e64000000000000000000000000000000600082015250565b60006117c2601183611484565b91506117cd8261178c565b602082019050919050565b600060208201905081810360008301526117f1816117b5565b9050919050565b6000819050919050565b61180b816117f8565b82525050565b600067ffffffffffffffff82169050919050565b61182e81611811565b82525050565b600061ffff82169050919050565b61184b81611834565b82525050565b600063ffffffff82169050919050565b61186a81611851565b82525050565b600060a0820190506118856000830188611802565b6118926020830187611825565b61189f6040830186611842565b6118ac6060830185611861565b6118b96080830184611861565b9695505050505050565b6000815190506118d281610e84565b92915050565b6000602082840312156118ee576118ed610e70565b5b60006118fc848285016118c3565b91505092915050565b600060208201905061191a6000830184611861565b9291505056fea2646970667358221220ca253508ee55f22358f22dca3b2cd505db5c38a9ee0951088ff984c817f3ff4164736f6c634300080a0033",
  "linkReferences": {},
  "deployedLinkReferences": {}
}