{
  "_format": "hh-sol-artifact-1",
  "contractName": "LuckyLens",
  "sourceName": "contracts/LuckyLens.sol",
  "abi": [
    {
      "inputs": [
        {
          "internalType": "uint64",
          "name": "id",
          "type": "uint64"
        },
        {
          "internalType": "address",
          "name": "_lensHubProxy",
          "type": "address"
        }
      ],
      "stateMutability": "nonpayable",
      "type": "constructor"
    },
    {
      "inputs": [
        {
          "internalType": "address",
          "name": "have",
          "type": "address"
        },
        {
          "internalType": "address",
          "name": "want",
          "type": "address"
        }
      ],
      "name": "OnlyCoordinatorCanFulfill",
      "type": "error"
    },
    {
      "anonymous": false,
      "inputs": [
        {
          "indexed": true,
          "internalType": "uint256",
          "name": "raffleId",
          "type": "uint256"
        },
        {
          "indexed": true,
          "internalType": "uint256",
          "name": "profileId",
          "type": "uint256"
        },
        {
          "indexed": false,
          "internalType": "uint256",
          "name": "pubId",
          "type": "uint256"
        },
        {
          "indexed": false,
          "internalType": "uint256",
          "name": "time",
          "type": "uint256"
        },
        {
          "indexed": true,
          "internalType": "address",
          "name": "owner",
          "type": "address"
        }
      ],
      "name": "PostRaffle",
      "type": "event"
    },
    {
      "anonymous": false,
      "inputs": [
        {
          "indexed": true,
          "internalType": "uint256",
          "name": "raffleId",
          "type": "uint256"
        },
        {
          "indexed": true,
          "internalType": "uint256",
          "name": "requestId",
          "type": "uint256"
        },
        {
          "indexed": true,
          "internalType": "uint256",
          "name": "randomNum",
          "type": "uint256"
        }
      ],
      "name": "RequestFulfilled",
      "type": "event"
    },
    {
      "anonymous": false,
      "inputs": [
        {
          "indexed": true,
          "internalType": "uint256",
          "name": "raffleId",
          "type": "uint256"
        },
        {
          "indexed": true,
          "internalType": "uint256",
          "name": "requestId",
          "type": "uint256"
        },
        {
          "indexed": false,
          "internalType": "uint32",
          "name": "numWords",
          "type": "uint32"
        }
      ],
      "name": "RequestSent",
      "type": "event"
    },
    {
      "inputs": [
        {
          "internalType": "uint256",
          "name": "",
          "type": "uint256"
        }
      ],
      "name": "Raffles",
      "outputs": [
        {
          "internalType": "address",
          "name": "owner",
          "type": "address"
        },
        {
          "internalType": "uint256",
          "name": "profileId",
          "type": "uint256"
        },
        {
          "internalType": "uint256",
          "name": "pubId",
          "type": "uint256"
        },
        {
          "internalType": "uint256",
          "name": "time",
          "type": "uint256"
        },
        {
          "internalType": "uint256",
          "name": "randomNum",
          "type": "uint256"
        }
      ],
      "stateMutability": "view",
      "type": "function"
    },
    {
      "inputs": [
        {
          "internalType": "uint256",
          "name": "raffleId",
          "type": "uint256"
        }
      ],
      "name": "chooseRandomWinner",
      "outputs": [],
      "stateMutability": "nonpayable",
      "type": "function"
    },
    {
      "inputs": [
        {
          "internalType": "uint256",
          "name": "_requestId",
          "type": "uint256"
        }
      ],
      "name": "getRequestStatus",
      "outputs": [
        {
          "internalType": "bool",
          "name": "fulfilled",
          "type": "bool"
        },
        {
          "internalType": "uint256[]",
          "name": "randomWords",
          "type": "uint256[]"
        }
      ],
      "stateMutability": "view",
      "type": "function"
    },
    {
      "inputs": [],
      "name": "lastRequestId",
      "outputs": [
        {
          "internalType": "uint256",
          "name": "",
          "type": "uint256"
        }
      ],
      "stateMutability": "view",
      "type": "function"
    },
    {
      "inputs": [
        {
          "internalType": "uint256",
          "name": "profileId",
          "type": "uint256"
        },
        {
          "internalType": "uint256",
          "name": "pubId",
          "type": "uint256"
        }
      ],
      "name": "newRaffleDrawNow",
      "outputs": [],
      "stateMutability": "nonpayable",
      "type": "function"
    },
    {
      "inputs": [
        {
          "internalType": "uint256",
          "name": "profileId",
          "type": "uint256"
        },
        {
          "internalType": "uint256",
          "name": "pubId",
          "type": "uint256"
        },
        {
          "internalType": "uint256",
          "name": "time",
          "type": "uint256"
        }
      ],
      "name": "postRaffle",
      "outputs": [
        {
          "internalType": "uint256",
          "name": "",
          "type": "uint256"
        }
      ],
      "stateMutability": "nonpayable",
      "type": "function"
    },
    {
      "inputs": [
        {
          "internalType": "uint256",
          "name": "requestId",
          "type": "uint256"
        },
        {
          "internalType": "uint256[]",
          "name": "randomWords",
          "type": "uint256[]"
        }
      ],
      "name": "rawFulfillRandomWords",
      "outputs": [],
      "stateMutability": "nonpayable",
      "type": "function"
    },
    {
      "inputs": [
        {
          "internalType": "uint256",
          "name": "",
          "type": "uint256"
        }
      ],
      "name": "requestIdToRaffleId",
      "outputs": [
        {
          "internalType": "uint256",
          "name": "",
          "type": "uint256"
        }
      ],
      "stateMutability": "view",
      "type": "function"
    },
    {
      "inputs": [
        {
          "internalType": "uint256",
          "name": "",
          "type": "uint256"
        }
      ],
      "name": "requestIds",
      "outputs": [
        {
          "internalType": "uint256",
          "name": "",
          "type": "uint256"
        }
      ],
      "stateMutability": "view",
      "type": "function"
    },
    {
      "inputs": [
        {
          "internalType": "uint256",
          "name": "",
          "type": "uint256"
        }
      ],
      "name": "s_requests",
      "outputs": [
        {
          "internalType": "bool",
          "name": "fulfilled",
          "type": "bool"
        },
        {
          "internalType": "bool",
          "name": "exists",
          "type": "bool"
        }
      ],
      "stateMutability": "view",
      "type": "function"
    }
  ],
  "bytecode": "0x60c06040527f4b09e658ed251bcafeebbc69400383d49f344ace09b9576fe248bb02c003fe9f60001b600455620186a0600560006101000a81548163ffffffff021916908363ffffffff1602179055506003600560046101000a81548161ffff021916908361ffff1602179055506001600560066101000a81548163ffffffff021916908363ffffffff1602179055503480156200009c57600080fd5b5060405162001972380380620019728339818101604052810190620000c2919062000277565b81737a1bac17ccc5b313516c5e16fb24f7659aa5ebed8073ffffffffffffffffffffffffffffffffffffffff1660808173ffffffffffffffffffffffffffffffffffffffff168152505050737a1bac17ccc5b313516c5e16fb24f7659aa5ebed600160006101000a81548173ffffffffffffffffffffffffffffffffffffffff021916908373ffffffffffffffffffffffffffffffffffffffff16021790555080600160146101000a81548167ffffffffffffffff021916908367ffffffffffffffff160217905550508073ffffffffffffffffffffffffffffffffffffffff1660a08173ffffffffffffffffffffffffffffffffffffffff16815250505050620002be565b600080fd5b600067ffffffffffffffff82169050919050565b620001ec81620001cd565b8114620001f857600080fd5b50565b6000815190506200020c81620001e1565b92915050565b600073ffffffffffffffffffffffffffffffffffffffff82169050919050565b60006200023f8262000212565b9050919050565b620002518162000232565b81146200025d57600080fd5b50565b600081519050620002718162000246565b92915050565b60008060408385031215620002915762000290620001c8565b5b6000620002a185828601620001fb565b9250506020620002b48582860162000260565b9150509250929050565b60805160a05161168a620002e860003960005050600081816102a301526102f7015261168a6000f3fe608060405234801561001057600080fd5b506004361061009e5760003560e01c80638a41d3e3116100665780638a41d3e31461016f578063a168fa891461019f578063adcb68e8146101d0578063d8a4676f146101ec578063fc2a88c31461021d5761009e565b80631d5ccd9b146100a35780631fe543e3146100d75780633619283d146100f35780636174b2731461010f5780638796ba8c1461013f575b600080fd5b6100bd60048036038101906100b89190610d44565b61023b565b6040516100ce959493929190610dc1565b60405180910390f35b6100f160048036038101906100ec9190610f6d565b6102a1565b005b61010d60048036038101906101089190610d44565b610361565b005b61012960048036038101906101249190610fc9565b6105c2565b604051610136919061101c565b60405180910390f35b61015960048036038101906101549190610d44565b610711565b604051610166919061101c565b60405180910390f35b61018960048036038101906101849190610d44565b610735565b604051610196919061101c565b60405180910390f35b6101b960048036038101906101b49190610d44565b61074d565b6040516101c7929190611052565b60405180910390f35b6101ea60048036038101906101e5919061107b565b61078b565b005b61020660048036038101906102019190610d44565b6107a9565b604051610214929190611179565b60405180910390f35b6102256108d2565b604051610232919061101c565b60405180910390f35b6007818154811061024b57600080fd5b90600052602060002090600502016000915090508060000160009054906101000a900473ffffffffffffffffffffffffffffffffffffffff16908060010154908060020154908060030154908060040154905085565b7f000000000000000000000000000000000000000000000000000000000000000073ffffffffffffffffffffffffffffffffffffffff163373ffffffffffffffffffffffffffffffffffffffff161461035357337f00000000000000000000000000000000000000000000000000000000000000006040517f1cf993f400000000000000000000000000000000000000000000000000000000815260040161034a9291906111a9565b60405180910390fd5b61035d82826108d8565b5050565b600073ffffffffffffffffffffffffffffffffffffffff166007828154811061038d5761038c6111d2565b5b906000526020600020906005020160000160009054906101000a900473ffffffffffffffffffffffffffffffffffffffff1673ffffffffffffffffffffffffffffffffffffffff161415610416576040517f08c379a000000000000000000000000000000000000000000000000000000000815260040161040d90611284565b60405180910390fd5b6007818154811061042a576104296111d2565b5b906000526020600020906005020160000160009054906101000a900473ffffffffffffffffffffffffffffffffffffffff1673ffffffffffffffffffffffffffffffffffffffff163373ffffffffffffffffffffffffffffffffffffffff16146104c9576040517f08c379a00000000000000000000000000000000000000000000000000000000081526004016104c0906112f0565b60405180910390fd5b6000600782815481106104df576104de6111d2565b5b90600052602060002090600502016004015414610531576040517f08c379a000000000000000000000000000000000000000000000000000000000815260040161052890611382565b60405180910390fd5b60078181548110610545576105446111d2565b5b906000526020600020906005020160030154421015610599576040517f08c379a000000000000000000000000000000000000000000000000000000000815260040161059090611414565b60405180910390fd5b60006105a482610a3e565b90508160066000838152602001908152602001600020819055505050565b600060076040518060a001604052803373ffffffffffffffffffffffffffffffffffffffff1681526020018681526020018581526020018481526020016000815250908060018154018082558091505060019003906000526020600020906005020160009091909190915060008201518160000160006101000a81548173ffffffffffffffffffffffffffffffffffffffff021916908373ffffffffffffffffffffffffffffffffffffffff160217905550602082015181600101556040820151816002015560608201518160030155608082015181600401555050600060016007805490506106b29190611463565b90503373ffffffffffffffffffffffffffffffffffffffff1685827f4eaaef0da383dabb1fd21875d1e0a914206c01a2f67c0683d2786cc06927592687876040516106fe929190611497565b60405180910390a4809150509392505050565b6002818154811061072157600080fd5b906000526020600020016000915090505481565b60066020528060005260406000206000915090505481565b60006020528060005260406000206000915090508060000160009054906101000a900460ff16908060000160019054906101000a900460ff16905082565b6000610799838360016105c2565b90506107a481610361565b505050565b6000606060008084815260200190815260200160002060000160019054906101000a900460ff1661080f576040517f08c379a00000000000000000000000000000000000000000000000000000000081526004016108069061150c565b60405180910390fd5b60008060008581526020019081526020016000206040518060600160405290816000820160009054906101000a900460ff161515151581526020016000820160019054906101000a900460ff16151515158152602001600182018054806020026020016040519081016040528092919081815260200182805480156108b357602002820191906000526020600020905b81548152602001906001019080831161089f575b5050505050815250509050806000015181604001519250925050915091565b60035481565b60008083815260200190815260200160002060000160019054906101000a900460ff1661093a576040517f08c379a00000000000000000000000000000000000000000000000000000000081526004016109319061150c565b60405180910390fd5b600160008084815260200190815260200160002060000160006101000a81548160ff021916908315150217905550806000808481526020019081526020016000206001019080519060200190610991929190610c90565b50600060066000848152602001908152602001600020549050816000815181106109be576109bd6111d2565b5b6020026020010151600782815481106109da576109d96111d2565b5b90600052602060002090600502016004018190555081600081518110610a0357610a026111d2565b5b602002602001015183827f8a06e59f8bcf6fd7f3d4f78e40f7271ef279eaf8e0fc07df107169ccdc05ab6560405160405180910390a4505050565b6000600160009054906101000a900473ffffffffffffffffffffffffffffffffffffffff1673ffffffffffffffffffffffffffffffffffffffff16635d3b1d30600454600160149054906101000a900467ffffffffffffffff16600560049054906101000a900461ffff16600560009054906101000a900463ffffffff16600560069054906101000a900463ffffffff166040518663ffffffff1660e01b8152600401610aef9594939291906115a4565b6020604051808303816000875af1158015610b0e573d6000803e3d6000fd5b505050506040513d601f19601f82011682018060405250810190610b32919061160c565b90506040518060600160405280600015158152602001600115158152602001600067ffffffffffffffff811115610b6c57610b6b610e2a565b5b604051908082528060200260200182016040528015610b9a5781602001602082028036833780820191505090505b5081525060008083815260200190815260200160002060008201518160000160006101000a81548160ff02191690831515021790555060208201518160000160016101000a81548160ff0219169083151502179055506040820151816001019080519060200190610c0c929190610c90565b5090505060028190806001815401808255809150506001900390600052602060002001600090919091909150558060038190555080827ff567066553e2a75ae63c3f8cc1b3d7a6ad8f045de5e9572916c57b95a1163176600560069054906101000a900463ffffffff16604051610c839190611639565b60405180910390a3919050565b828054828255906000526020600020908101928215610ccc579160200282015b82811115610ccb578251825591602001919060010190610cb0565b5b509050610cd99190610cdd565b5090565b5b80821115610cf6576000816000905550600101610cde565b5090565b6000604051905090565b600080fd5b600080fd5b6000819050919050565b610d2181610d0e565b8114610d2c57600080fd5b50565b600081359050610d3e81610d18565b92915050565b600060208284031215610d5a57610d59610d04565b5b6000610d6884828501610d2f565b91505092915050565b600073ffffffffffffffffffffffffffffffffffffffff82169050919050565b6000610d9c82610d71565b9050919050565b610dac81610d91565b82525050565b610dbb81610d0e565b82525050565b600060a082019050610dd66000830188610da3565b610de36020830187610db2565b610df06040830186610db2565b610dfd6060830185610db2565b610e0a6080830184610db2565b9695505050505050565b600080fd5b6000601f19601f8301169050919050565b7f4e487b7100000000000000000000000000000000000000000000000000000000600052604160045260246000fd5b610e6282610e19565b810181811067ffffffffffffffff82111715610e8157610e80610e2a565b5b80604052505050565b6000610e94610cfa565b9050610ea08282610e59565b919050565b600067ffffffffffffffff821115610ec057610ebf610e2a565b5b602082029050602081019050919050565b600080fd5b6000610ee9610ee484610ea5565b610e8a565b90508083825260208201905060208402830185811115610f0c57610f0b610ed1565b5b835b81811015610f355780610f218882610d2f565b845260208401935050602081019050610f0e565b5050509392505050565b600082601f830112610f5457610f53610e14565b5b8135610f64848260208601610ed6565b91505092915050565b60008060408385031215610f8457610f83610d04565b5b6000610f9285828601610d2f565b925050602083013567ffffffffffffffff811115610fb357610fb2610d09565b5b610fbf85828601610f3f565b9150509250929050565b600080600060608486031215610fe257610fe1610d04565b5b6000610ff086828701610d2f565b935050602061100186828701610d2f565b925050604061101286828701610d2f565b9150509250925092565b60006020820190506110316000830184610db2565b92915050565b60008115159050919050565b61104c81611037565b82525050565b60006040820190506110676000830185611043565b6110746020830184611043565b9392505050565b6000806040838503121561109257611091610d04565b5b60006110a085828601610d2f565b92505060206110b185828601610d2f565b9150509250929050565b600081519050919050565b600082825260208201905092915050565b6000819050602082019050919050565b6110f081610d0e565b82525050565b600061110283836110e7565b60208301905092915050565b6000602082019050919050565b6000611126826110bb565b61113081856110c6565b935061113b836110d7565b8060005b8381101561116c57815161115388826110f6565b975061115e8361110e565b92505060018101905061113f565b5085935050505092915050565b600060408201905061118e6000830185611043565b81810360208301526111a0818461111b565b90509392505050565b60006040820190506111be6000830185610da3565b6111cb6020830184610da3565b9392505050565b7f4e487b7100000000000000000000000000000000000000000000000000000000600052603260045260246000fd5b600082825260208201905092915050565b7f7468657265206973206e6f20726166666c65206174207468697320696e64657860008201527f202f206964000000000000000000000000000000000000000000000000000000602082015250565b600061126e602583611201565b915061127982611212565b604082019050919050565b6000602082019050818103600083015261129d81611261565b9050919050565b7f6f6e6c7920746865206f776e65722063616e20726166666c6500000000000000600082015250565b60006112da601983611201565b91506112e5826112a4565b602082019050919050565b60006020820190508181036000830152611309816112cd565b9050919050565b7f612077696e6e65722068617320616c7265616479206265656e2073656c65637460008201527f6564000000000000000000000000000000000000000000000000000000000000602082015250565b600061136c602283611201565b915061137782611310565b604082019050919050565b6000602082019050818103600083015261139b8161135f565b9050919050565b7f6974277320746f6f206561726c7920746f2073656c65637420612077696e6e6560008201527f7200000000000000000000000000000000000000000000000000000000000000602082015250565b60006113fe602183611201565b9150611409826113a2565b604082019050919050565b6000602082019050818103600083015261142d816113f1565b9050919050565b7f4e487b7100000000000000000000000000000000000000000000000000000000600052601160045260246000fd5b600061146e82610d0e565b915061147983610d0e565b92508282101561148c5761148b611434565b5b828203905092915050565b60006040820190506114ac6000830185610db2565b6114b96020830184610db2565b9392505050565b7f72657175657374206e6f7420666f756e64000000000000000000000000000000600082015250565b60006114f6601183611201565b9150611501826114c0565b602082019050919050565b60006020820190508181036000830152611525816114e9565b9050919050565b6000819050919050565b61153f8161152c565b82525050565b600067ffffffffffffffff82169050919050565b61156281611545565b82525050565b600061ffff82169050919050565b61157f81611568565b82525050565b600063ffffffff82169050919050565b61159e81611585565b82525050565b600060a0820190506115b96000830188611536565b6115c66020830187611559565b6115d36040830186611576565b6115e06060830185611595565b6115ed6080830184611595565b9695505050505050565b60008151905061160681610d18565b92915050565b60006020828403121561162257611621610d04565b5b6000611630848285016115f7565b91505092915050565b600060208201905061164e6000830184611595565b9291505056fea26469706673582212209aa7e5145f09ad5afc1ddac8b5a654fa9e9759ee1ddefd195e10fd32e54fe4ce64736f6c634300080a0033",
  "linkReferences": {},
  "deployedLinkReferences": {}
}