{
  "_format": "hh-sol-artifact-1",
  "contractName": "LuckyLens",
  "sourceName": "contracts/LuckyLens.sol",
  "abi": [
    {
      "inputs": [
        {
          "internalType": "uint64",
          "name": "id",
          "type": "uint64"
        },
        {
          "internalType": "address",
          "name": "_lensHubProxy",
          "type": "address"
        }
      ],
      "stateMutability": "nonpayable",
      "type": "constructor"
    },
    {
      "inputs": [
        {
          "internalType": "address",
          "name": "have",
          "type": "address"
        },
        {
          "internalType": "address",
          "name": "want",
          "type": "address"
        }
      ],
      "name": "OnlyCoordinatorCanFulfill",
      "type": "error"
    },
    {
      "anonymous": false,
      "inputs": [
        {
          "indexed": true,
          "internalType": "address",
          "name": "owner",
          "type": "address"
        },
        {
          "indexed": true,
          "internalType": "uint256",
          "name": "raffleId",
          "type": "uint256"
        },
        {
          "indexed": true,
          "internalType": "uint256",
          "name": "profileId",
          "type": "uint256"
        },
        {
          "indexed": false,
          "internalType": "uint256",
          "name": "pubId",
          "type": "uint256"
        },
        {
          "indexed": false,
          "internalType": "uint48",
          "name": "time",
          "type": "uint48"
        }
      ],
      "name": "PostRaffle",
      "type": "event"
    },
    {
      "anonymous": false,
      "inputs": [
        {
          "indexed": true,
          "internalType": "uint256",
          "name": "raffleId",
          "type": "uint256"
        },
        {
          "indexed": true,
          "internalType": "uint256",
          "name": "requestId",
          "type": "uint256"
        },
        {
          "indexed": true,
          "internalType": "uint256",
          "name": "randomNum",
          "type": "uint256"
        }
      ],
      "name": "RequestFulfilled",
      "type": "event"
    },
    {
      "anonymous": false,
      "inputs": [
        {
          "indexed": true,
          "internalType": "uint256",
          "name": "raffleId",
          "type": "uint256"
        },
        {
          "indexed": true,
          "internalType": "uint256",
          "name": "requestId",
          "type": "uint256"
        },
        {
          "indexed": false,
          "internalType": "uint32",
          "name": "numWords",
          "type": "uint32"
        }
      ],
      "name": "RequestSent",
      "type": "event"
    },
    {
      "inputs": [
        {
          "internalType": "uint256",
          "name": "",
          "type": "uint256"
        }
      ],
      "name": "Raffles",
      "outputs": [
        {
          "internalType": "address",
          "name": "owner",
          "type": "address"
        },
        {
          "internalType": "uint256",
          "name": "profileId",
          "type": "uint256"
        },
        {
          "internalType": "uint256",
          "name": "pubId",
          "type": "uint256"
        },
        {
          "internalType": "uint48",
          "name": "time",
          "type": "uint48"
        },
        {
          "internalType": "uint256",
          "name": "randomNum",
          "type": "uint256"
        }
      ],
      "stateMutability": "view",
      "type": "function"
    },
    {
      "inputs": [
        {
          "internalType": "uint256",
          "name": "raffleId",
          "type": "uint256"
        }
      ],
      "name": "chooseRandomWinner",
      "outputs": [],
      "stateMutability": "nonpayable",
      "type": "function"
    },
    {
      "inputs": [
        {
          "internalType": "uint256[]",
          "name": "raffleIds",
          "type": "uint256[]"
        }
      ],
      "name": "getRandomNums",
      "outputs": [
        {
          "internalType": "uint256[]",
          "name": "",
          "type": "uint256[]"
        }
      ],
      "stateMutability": "view",
      "type": "function"
    },
    {
      "inputs": [
        {
          "internalType": "uint256",
          "name": "_requestId",
          "type": "uint256"
        }
      ],
      "name": "getRequestStatus",
      "outputs": [
        {
          "internalType": "bool",
          "name": "fulfilled",
          "type": "bool"
        },
        {
          "internalType": "uint256[]",
          "name": "randomWords",
          "type": "uint256[]"
        }
      ],
      "stateMutability": "view",
      "type": "function"
    },
    {
      "inputs": [
        {
          "internalType": "uint256",
          "name": "timeInSeconds",
          "type": "uint256"
        }
      ],
      "name": "isAfter",
      "outputs": [
        {
          "internalType": "bool",
          "name": "",
          "type": "bool"
        }
      ],
      "stateMutability": "view",
      "type": "function"
    },
    {
      "inputs": [],
      "name": "lastRequestId",
      "outputs": [
        {
          "internalType": "uint256",
          "name": "",
          "type": "uint256"
        }
      ],
      "stateMutability": "view",
      "type": "function"
    },
    {
      "inputs": [
        {
          "internalType": "uint256",
          "name": "profileId",
          "type": "uint256"
        },
        {
          "internalType": "uint256",
          "name": "pubId",
          "type": "uint256"
        }
      ],
      "name": "newRaffleDrawNow",
      "outputs": [],
      "stateMutability": "nonpayable",
      "type": "function"
    },
    {
      "inputs": [
        {
          "internalType": "uint256",
          "name": "profileId",
          "type": "uint256"
        },
        {
          "internalType": "uint256",
          "name": "pubId",
          "type": "uint256"
        },
        {
          "internalType": "uint48",
          "name": "time",
          "type": "uint48"
        }
      ],
      "name": "postRaffle",
      "outputs": [
        {
          "internalType": "uint256",
          "name": "",
          "type": "uint256"
        }
      ],
      "stateMutability": "nonpayable",
      "type": "function"
    },
    {
      "inputs": [
        {
          "internalType": "uint256",
          "name": "requestId",
          "type": "uint256"
        },
        {
          "internalType": "uint256[]",
          "name": "randomWords",
          "type": "uint256[]"
        }
      ],
      "name": "rawFulfillRandomWords",
      "outputs": [],
      "stateMutability": "nonpayable",
      "type": "function"
    },
    {
      "inputs": [
        {
          "internalType": "uint256",
          "name": "",
          "type": "uint256"
        }
      ],
      "name": "requestIdToRaffleId",
      "outputs": [
        {
          "internalType": "uint256",
          "name": "",
          "type": "uint256"
        }
      ],
      "stateMutability": "view",
      "type": "function"
    },
    {
      "inputs": [
        {
          "internalType": "uint256",
          "name": "",
          "type": "uint256"
        }
      ],
      "name": "requestIds",
      "outputs": [
        {
          "internalType": "uint256",
          "name": "",
          "type": "uint256"
        }
      ],
      "stateMutability": "view",
      "type": "function"
    },
    {
      "inputs": [
        {
          "internalType": "uint256",
          "name": "",
          "type": "uint256"
        }
      ],
      "name": "s_requests",
      "outputs": [
        {
          "internalType": "bool",
          "name": "fulfilled",
          "type": "bool"
        },
        {
          "internalType": "bool",
          "name": "exists",
          "type": "bool"
        }
      ],
      "stateMutability": "view",
      "type": "function"
    },
    {
      "inputs": [],
      "name": "timestamp",
      "outputs": [
        {
          "internalType": "uint256",
          "name": "",
          "type": "uint256"
        }
      ],
      "stateMutability": "view",
      "type": "function"
    }
  ],
  "bytecode": "0x60c06040527f4b09e658ed251bcafeebbc69400383d49f344ace09b9576fe248bb02c003fe9f60001b600455620186a0600560006101000a81548163ffffffff021916908363ffffffff1602179055506003600560046101000a81548161ffff021916908361ffff1602179055506001600560066101000a81548163ffffffff021916908363ffffffff1602179055503480156200009c57600080fd5b5060405162001ce138038062001ce18339818101604052810190620000c2919062000277565b81737a1bac17ccc5b313516c5e16fb24f7659aa5ebed8073ffffffffffffffffffffffffffffffffffffffff1660808173ffffffffffffffffffffffffffffffffffffffff168152505050737a1bac17ccc5b313516c5e16fb24f7659aa5ebed600160006101000a81548173ffffffffffffffffffffffffffffffffffffffff021916908373ffffffffffffffffffffffffffffffffffffffff16021790555080600160146101000a81548167ffffffffffffffff021916908367ffffffffffffffff160217905550508073ffffffffffffffffffffffffffffffffffffffff1660a08173ffffffffffffffffffffffffffffffffffffffff16815250505050620002be565b600080fd5b600067ffffffffffffffff82169050919050565b620001ec81620001cd565b8114620001f857600080fd5b50565b6000815190506200020c81620001e1565b92915050565b600073ffffffffffffffffffffffffffffffffffffffff82169050919050565b60006200023f8262000212565b9050919050565b620002518162000232565b81146200025d57600080fd5b50565b600081519050620002718162000246565b92915050565b60008060408385031215620002915762000290620001c8565b5b6000620002a185828601620001fb565b9250506020620002b48582860162000260565b9150509250929050565b60805160a0516119f9620002e8600039600050506000818161037001526103c401526119f96000f3fe608060405234801561001057600080fd5b50600436106100cf5760003560e01c80638a41d3e31161008c578063b80777ea11610066578063b80777ea1461024d578063d23f5cd31461026b578063d8a4676f1461029b578063fc2a88c3146102cc576100cf565b80638a41d3e3146101d0578063a168fa8914610200578063adcb68e814610231576100cf565b806319956d2f146100d45780631d5ccd9b146101045780631fe543e3146101385780633619283d14610154578063550ac75a146101705780638796ba8c146101a0575b600080fd5b6100ee60048036038101906100e99190610f38565b6102ea565b6040516100fb9190610f80565b60405180910390f35b61011e60048036038101906101199190610f38565b6102f6565b60405161012f95949392919061100c565b60405180910390f35b610152600480360381019061014d91906111b8565b61036e565b005b61016e60048036038101906101699190610f38565b61042e565b005b61018a60048036038101906101859190611240565b6106a9565b6040516101979190611293565b60405180910390f35b6101ba60048036038101906101b59190610f38565b610821565b6040516101c79190611293565b60405180910390f35b6101ea60048036038101906101e59190610f38565b610845565b6040516101f79190611293565b60405180910390f35b61021a60048036038101906102159190610f38565b61085d565b6040516102289291906112ae565b60405180910390f35b61024b600480360381019061024691906112d7565b61089b565b005b6102556108b9565b6040516102629190611293565b60405180910390f35b61028560048036038101906102809190611372565b6108c1565b604051610292919061147d565b60405180910390f35b6102b560048036038101906102b09190610f38565b61099d565b6040516102c392919061149f565b60405180910390f35b6102d4610ac6565b6040516102e19190611293565b60405180910390f35b60008142119050919050565b6007818154811061030657600080fd5b90600052602060002090600502016000915090508060000160009054906101000a900473ffffffffffffffffffffffffffffffffffffffff16908060010154908060020154908060030160009054906101000a900465ffffffffffff16908060040154905085565b7f000000000000000000000000000000000000000000000000000000000000000073ffffffffffffffffffffffffffffffffffffffff163373ffffffffffffffffffffffffffffffffffffffff161461042057337f00000000000000000000000000000000000000000000000000000000000000006040517f1cf993f40000000000000000000000000000000000000000000000000000000081526004016104179291906114cf565b60405180910390fd5b61042a8282610acc565b5050565b600073ffffffffffffffffffffffffffffffffffffffff166007828154811061045a576104596114f8565b5b906000526020600020906005020160000160009054906101000a900473ffffffffffffffffffffffffffffffffffffffff1673ffffffffffffffffffffffffffffffffffffffff1614156104e3576040517f08c379a00000000000000000000000000000000000000000000000000000000081526004016104da906115aa565b60405180910390fd5b600781815481106104f7576104f66114f8565b5b906000526020600020906005020160000160009054906101000a900473ffffffffffffffffffffffffffffffffffffffff1673ffffffffffffffffffffffffffffffffffffffff163373ffffffffffffffffffffffffffffffffffffffff1614610596576040517f08c379a000000000000000000000000000000000000000000000000000000000815260040161058d90611616565b60405180910390fd5b6000600782815481106105ac576105ab6114f8565b5b906000526020600020906005020160040154146105fe576040517f08c379a00000000000000000000000000000000000000000000000000000000081526004016105f5906116a8565b60405180910390fd5b60078181548110610612576106116114f8565b5b906000526020600020906005020160030160009054906101000a900465ffffffffffff1665ffffffffffff16421015610680576040517f08c379a00000000000000000000000000000000000000000000000000000000081526004016106779061173a565b60405180910390fd5b600061068b82610c32565b90508160066000838152602001908152602001600020819055505050565b600060076040518060a001604052803373ffffffffffffffffffffffffffffffffffffffff1681526020018681526020018581526020018465ffffffffffff1681526020016000815250908060018154018082558091505060019003906000526020600020906005020160009091909190915060008201518160000160006101000a81548173ffffffffffffffffffffffffffffffffffffffff021916908373ffffffffffffffffffffffffffffffffffffffff160217905550602082015181600101556040820151816002015560608201518160030160006101000a81548165ffffffffffff021916908365ffffffffffff160217905550608082015181600401555050600060016007805490506107c29190611789565b905084813373ffffffffffffffffffffffffffffffffffffffff167ffeaba8c11b54e3634f3b8c188042909e769cce8afe5d2ade13643f45a62902a7878760405161080e9291906117bd565b60405180910390a4809150509392505050565b6002818154811061083157600080fd5b906000526020600020016000915090505481565b60066020528060005260406000206000915090505481565b60006020528060005260406000206000915090508060000160009054906101000a900460ff16908060000160019054906101000a900460ff16905082565b60006108a9838360016106a9565b90506108b48161042e565b505050565b600042905090565b606060008383905067ffffffffffffffff8111156108e2576108e1611075565b5b6040519080825280602002602001820160405280156109105781602001602082028036833780820191505090505b50905060005b84849050811015610992576007858583818110610936576109356114f8565b5b905060200201358154811061094e5761094d6114f8565b5b906000526020600020906005020160040154828281518110610973576109726114f8565b5b602002602001018181525050808061098a906117e6565b915050610916565b508091505092915050565b6000606060008084815260200190815260200160002060000160019054906101000a900460ff16610a03576040517f08c379a00000000000000000000000000000000000000000000000000000000081526004016109fa9061187b565b60405180910390fd5b60008060008581526020019081526020016000206040518060600160405290816000820160009054906101000a900460ff161515151581526020016000820160019054906101000a900460ff1615151515815260200160018201805480602002602001604051908101604052809291908181526020018280548015610aa757602002820191906000526020600020905b815481526020019060010190808311610a93575b5050505050815250509050806000015181604001519250925050915091565b60035481565b60008083815260200190815260200160002060000160019054906101000a900460ff16610b2e576040517f08c379a0000000000000000000000000000000000000000000000000000000008152600401610b259061187b565b60405180910390fd5b600160008084815260200190815260200160002060000160006101000a81548160ff021916908315150217905550806000808481526020019081526020016000206001019080519060200190610b85929190610e84565b5060006006600084815260200190815260200160002054905081600081518110610bb257610bb16114f8565b5b602002602001015160078281548110610bce57610bcd6114f8565b5b90600052602060002090600502016004018190555081600081518110610bf757610bf66114f8565b5b602002602001015183827f8a06e59f8bcf6fd7f3d4f78e40f7271ef279eaf8e0fc07df107169ccdc05ab6560405160405180910390a4505050565b6000600160009054906101000a900473ffffffffffffffffffffffffffffffffffffffff1673ffffffffffffffffffffffffffffffffffffffff16635d3b1d30600454600160149054906101000a900467ffffffffffffffff16600560049054906101000a900461ffff16600560009054906101000a900463ffffffff16600560069054906101000a900463ffffffff166040518663ffffffff1660e01b8152600401610ce3959493929190611913565b6020604051808303816000875af1158015610d02573d6000803e3d6000fd5b505050506040513d601f19601f82011682018060405250810190610d26919061197b565b90506040518060600160405280600015158152602001600115158152602001600067ffffffffffffffff811115610d6057610d5f611075565b5b604051908082528060200260200182016040528015610d8e5781602001602082028036833780820191505090505b5081525060008083815260200190815260200160002060008201518160000160006101000a81548160ff02191690831515021790555060208201518160000160016101000a81548160ff0219169083151502179055506040820151816001019080519060200190610e00929190610e84565b5090505060028190806001815401808255809150506001900390600052602060002001600090919091909150558060038190555080827ff567066553e2a75ae63c3f8cc1b3d7a6ad8f045de5e9572916c57b95a1163176600560069054906101000a900463ffffffff16604051610e7791906119a8565b60405180910390a3919050565b828054828255906000526020600020908101928215610ec0579160200282015b82811115610ebf578251825591602001919060010190610ea4565b5b509050610ecd9190610ed1565b5090565b5b80821115610eea576000816000905550600101610ed2565b5090565b6000604051905090565b600080fd5b600080fd5b6000819050919050565b610f1581610f02565b8114610f2057600080fd5b50565b600081359050610f3281610f0c565b92915050565b600060208284031215610f4e57610f4d610ef8565b5b6000610f5c84828501610f23565b91505092915050565b60008115159050919050565b610f7a81610f65565b82525050565b6000602082019050610f956000830184610f71565b92915050565b600073ffffffffffffffffffffffffffffffffffffffff82169050919050565b6000610fc682610f9b565b9050919050565b610fd681610fbb565b82525050565b610fe581610f02565b82525050565b600065ffffffffffff82169050919050565b61100681610feb565b82525050565b600060a0820190506110216000830188610fcd565b61102e6020830187610fdc565b61103b6040830186610fdc565b6110486060830185610ffd565b6110556080830184610fdc565b9695505050505050565b600080fd5b6000601f19601f8301169050919050565b7f4e487b7100000000000000000000000000000000000000000000000000000000600052604160045260246000fd5b6110ad82611064565b810181811067ffffffffffffffff821117156110cc576110cb611075565b5b80604052505050565b60006110df610eee565b90506110eb82826110a4565b919050565b600067ffffffffffffffff82111561110b5761110a611075565b5b602082029050602081019050919050565b600080fd5b600061113461112f846110f0565b6110d5565b905080838252602082019050602084028301858111156111575761115661111c565b5b835b81811015611180578061116c8882610f23565b845260208401935050602081019050611159565b5050509392505050565b600082601f83011261119f5761119e61105f565b5b81356111af848260208601611121565b91505092915050565b600080604083850312156111cf576111ce610ef8565b5b60006111dd85828601610f23565b925050602083013567ffffffffffffffff8111156111fe576111fd610efd565b5b61120a8582860161118a565b9150509250929050565b61121d81610feb565b811461122857600080fd5b50565b60008135905061123a81611214565b92915050565b60008060006060848603121561125957611258610ef8565b5b600061126786828701610f23565b935050602061127886828701610f23565b92505060406112898682870161122b565b9150509250925092565b60006020820190506112a86000830184610fdc565b92915050565b60006040820190506112c36000830185610f71565b6112d06020830184610f71565b9392505050565b600080604083850312156112ee576112ed610ef8565b5b60006112fc85828601610f23565b925050602061130d85828601610f23565b9150509250929050565b600080fd5b60008083601f8401126113325761133161105f565b5b8235905067ffffffffffffffff81111561134f5761134e611317565b5b60208301915083602082028301111561136b5761136a61111c565b5b9250929050565b6000806020838503121561138957611388610ef8565b5b600083013567ffffffffffffffff8111156113a7576113a6610efd565b5b6113b38582860161131c565b92509250509250929050565b600081519050919050565b600082825260208201905092915050565b6000819050602082019050919050565b6113f481610f02565b82525050565b600061140683836113eb565b60208301905092915050565b6000602082019050919050565b600061142a826113bf565b61143481856113ca565b935061143f836113db565b8060005b8381101561147057815161145788826113fa565b975061146283611412565b925050600181019050611443565b5085935050505092915050565b60006020820190508181036000830152611497818461141f565b905092915050565b60006040820190506114b46000830185610f71565b81810360208301526114c6818461141f565b90509392505050565b60006040820190506114e46000830185610fcd565b6114f16020830184610fcd565b9392505050565b7f4e487b7100000000000000000000000000000000000000000000000000000000600052603260045260246000fd5b600082825260208201905092915050565b7f7468657265206973206e6f20726166666c65206174207468697320696e64657860008201527f202f206964000000000000000000000000000000000000000000000000000000602082015250565b6000611594602583611527565b915061159f82611538565b604082019050919050565b600060208201905081810360008301526115c381611587565b9050919050565b7f6f6e6c7920746865206f776e65722063616e20726166666c6500000000000000600082015250565b6000611600601983611527565b915061160b826115ca565b602082019050919050565b6000602082019050818103600083015261162f816115f3565b9050919050565b7f612077696e6e65722068617320616c7265616479206265656e2073656c65637460008201527f6564000000000000000000000000000000000000000000000000000000000000602082015250565b6000611692602283611527565b915061169d82611636565b604082019050919050565b600060208201905081810360008301526116c181611685565b9050919050565b7f6974277320746f6f206561726c7920746f2073656c65637420612077696e6e6560008201527f7200000000000000000000000000000000000000000000000000000000000000602082015250565b6000611724602183611527565b915061172f826116c8565b604082019050919050565b6000602082019050818103600083015261175381611717565b9050919050565b7f4e487b7100000000000000000000000000000000000000000000000000000000600052601160045260246000fd5b600061179482610f02565b915061179f83610f02565b9250828210156117b2576117b161175a565b5b828203905092915050565b60006040820190506117d26000830185610fdc565b6117df6020830184610ffd565b9392505050565b60006117f182610f02565b91507fffffffffffffffffffffffffffffffffffffffffffffffffffffffffffffffff8214156118245761182361175a565b5b600182019050919050565b7f72657175657374206e6f7420666f756e64000000000000000000000000000000600082015250565b6000611865601183611527565b91506118708261182f565b602082019050919050565b6000602082019050818103600083015261189481611858565b9050919050565b6000819050919050565b6118ae8161189b565b82525050565b600067ffffffffffffffff82169050919050565b6118d1816118b4565b82525050565b600061ffff82169050919050565b6118ee816118d7565b82525050565b600063ffffffff82169050919050565b61190d816118f4565b82525050565b600060a08201905061192860008301886118a5565b61193560208301876118c8565b61194260408301866118e5565b61194f6060830185611904565b61195c6080830184611904565b9695505050505050565b60008151905061197581610f0c565b92915050565b60006020828403121561199157611990610ef8565b5b600061199f84828501611966565b91505092915050565b60006020820190506119bd6000830184611904565b9291505056fea264697066735822122098bc1f7a9f19d24a2fad2ae32226c4cd5a71c673f6382d1a221f0fd991579bcf64736f6c634300080a0033",
  "linkReferences": {},
  "deployedLinkReferences": {}
}