{
  "_format": "hh-sol-artifact-1",
  "contractName": "LuckyLens",
  "sourceName": "contracts/LuckyLens.sol",
  "abi": [
    {
      "inputs": [
        {
          "internalType": "uint64",
          "name": "id",
          "type": "uint64"
        },
        {
          "internalType": "address",
          "name": "_lensHubProxy",
          "type": "address"
        }
      ],
      "stateMutability": "nonpayable",
      "type": "constructor"
    },
    {
      "inputs": [
        {
          "internalType": "address",
          "name": "have",
          "type": "address"
        },
        {
          "internalType": "address",
          "name": "want",
          "type": "address"
        }
      ],
      "name": "OnlyCoordinatorCanFulfill",
      "type": "error"
    },
    {
      "anonymous": false,
      "inputs": [
        {
          "indexed": true,
          "internalType": "uint256",
          "name": "raffleId",
          "type": "uint256"
        },
        {
          "indexed": true,
          "internalType": "uint256",
          "name": "profileId",
          "type": "uint256"
        },
        {
          "indexed": true,
          "internalType": "uint256",
          "name": "pubId",
          "type": "uint256"
        },
        {
          "indexed": false,
          "internalType": "uint256",
          "name": "time",
          "type": "uint256"
        },
        {
          "indexed": false,
          "internalType": "address",
          "name": "owner",
          "type": "address"
        }
      ],
      "name": "PostRaffle",
      "type": "event"
    },
    {
      "anonymous": false,
      "inputs": [
        {
          "indexed": true,
          "internalType": "uint256",
          "name": "raffleId",
          "type": "uint256"
        },
        {
          "indexed": true,
          "internalType": "uint256",
          "name": "requestId",
          "type": "uint256"
        },
        {
          "indexed": true,
          "internalType": "uint256",
          "name": "randomNum",
          "type": "uint256"
        }
      ],
      "name": "RequestFulfilled",
      "type": "event"
    },
    {
      "anonymous": false,
      "inputs": [
        {
          "indexed": true,
          "internalType": "uint256",
          "name": "raffleId",
          "type": "uint256"
        },
        {
          "indexed": true,
          "internalType": "uint256",
          "name": "requestId",
          "type": "uint256"
        },
        {
          "indexed": false,
          "internalType": "uint32",
          "name": "numWords",
          "type": "uint32"
        }
      ],
      "name": "RequestSent",
      "type": "event"
    },
    {
      "inputs": [
        {
          "internalType": "uint256",
          "name": "",
          "type": "uint256"
        }
      ],
      "name": "Raffles",
      "outputs": [
        {
          "internalType": "address",
          "name": "owner",
          "type": "address"
        },
        {
          "internalType": "uint256",
          "name": "profileId",
          "type": "uint256"
        },
        {
          "internalType": "uint256",
          "name": "pubId",
          "type": "uint256"
        },
        {
          "internalType": "uint256",
          "name": "time",
          "type": "uint256"
        },
        {
          "internalType": "uint256",
          "name": "randomNum",
          "type": "uint256"
        }
      ],
      "stateMutability": "view",
      "type": "function"
    },
    {
      "inputs": [
        {
          "internalType": "uint256",
          "name": "raffleId",
          "type": "uint256"
        }
      ],
      "name": "chooseRandomWinner",
      "outputs": [],
      "stateMutability": "nonpayable",
      "type": "function"
    },
    {
      "inputs": [
        {
          "internalType": "uint256",
          "name": "_requestId",
          "type": "uint256"
        }
      ],
      "name": "getRequestStatus",
      "outputs": [
        {
          "internalType": "bool",
          "name": "fulfilled",
          "type": "bool"
        },
        {
          "internalType": "uint256[]",
          "name": "randomWords",
          "type": "uint256[]"
        }
      ],
      "stateMutability": "view",
      "type": "function"
    },
    {
      "inputs": [],
      "name": "lastRequestId",
      "outputs": [
        {
          "internalType": "uint256",
          "name": "",
          "type": "uint256"
        }
      ],
      "stateMutability": "view",
      "type": "function"
    },
    {
      "inputs": [
        {
          "internalType": "uint256",
          "name": "profileId",
          "type": "uint256"
        },
        {
          "internalType": "uint256",
          "name": "pubId",
          "type": "uint256"
        }
      ],
      "name": "newRaffleDrawNow",
      "outputs": [],
      "stateMutability": "nonpayable",
      "type": "function"
    },
    {
      "inputs": [
        {
          "internalType": "uint256",
          "name": "profileId",
          "type": "uint256"
        },
        {
          "internalType": "uint256",
          "name": "pubId",
          "type": "uint256"
        },
        {
          "internalType": "uint256",
          "name": "time",
          "type": "uint256"
        }
      ],
      "name": "postRaffle",
      "outputs": [
        {
          "internalType": "uint256",
          "name": "",
          "type": "uint256"
        }
      ],
      "stateMutability": "nonpayable",
      "type": "function"
    },
    {
      "inputs": [
        {
          "internalType": "uint256",
          "name": "requestId",
          "type": "uint256"
        },
        {
          "internalType": "uint256[]",
          "name": "randomWords",
          "type": "uint256[]"
        }
      ],
      "name": "rawFulfillRandomWords",
      "outputs": [],
      "stateMutability": "nonpayable",
      "type": "function"
    },
    {
      "inputs": [
        {
          "internalType": "uint256",
          "name": "",
          "type": "uint256"
        }
      ],
      "name": "requestIdToRaffleId",
      "outputs": [
        {
          "internalType": "uint256",
          "name": "",
          "type": "uint256"
        }
      ],
      "stateMutability": "view",
      "type": "function"
    },
    {
      "inputs": [
        {
          "internalType": "uint256",
          "name": "",
          "type": "uint256"
        }
      ],
      "name": "requestIds",
      "outputs": [
        {
          "internalType": "uint256",
          "name": "",
          "type": "uint256"
        }
      ],
      "stateMutability": "view",
      "type": "function"
    },
    {
      "inputs": [
        {
          "internalType": "uint256",
          "name": "",
          "type": "uint256"
        }
      ],
      "name": "s_requests",
      "outputs": [
        {
          "internalType": "bool",
          "name": "fulfilled",
          "type": "bool"
        },
        {
          "internalType": "bool",
          "name": "exists",
          "type": "bool"
        }
      ],
      "stateMutability": "view",
      "type": "function"
    }
  ],
  "bytecode": "0x60c06040527f4b09e658ed251bcafeebbc69400383d49f344ace09b9576fe248bb02c003fe9f60001b600455620186a0600560006101000a81548163ffffffff021916908363ffffffff1602179055506003600560046101000a81548161ffff021916908361ffff1602179055506001600560066101000a81548163ffffffff021916908363ffffffff1602179055503480156200009c57600080fd5b506040516200195c3803806200195c8339818101604052810190620000c2919062000277565b81737a1bac17ccc5b313516c5e16fb24f7659aa5ebed8073ffffffffffffffffffffffffffffffffffffffff1660808173ffffffffffffffffffffffffffffffffffffffff168152505050737a1bac17ccc5b313516c5e16fb24f7659aa5ebed600160006101000a81548173ffffffffffffffffffffffffffffffffffffffff021916908373ffffffffffffffffffffffffffffffffffffffff16021790555080600160146101000a81548167ffffffffffffffff021916908367ffffffffffffffff160217905550508073ffffffffffffffffffffffffffffffffffffffff1660a08173ffffffffffffffffffffffffffffffffffffffff16815250505050620002be565b600080fd5b600067ffffffffffffffff82169050919050565b620001ec81620001cd565b8114620001f857600080fd5b50565b6000815190506200020c81620001e1565b92915050565b600073ffffffffffffffffffffffffffffffffffffffff82169050919050565b60006200023f8262000212565b9050919050565b620002518162000232565b81146200025d57600080fd5b50565b600081519050620002718162000246565b92915050565b60008060408385031215620002915762000290620001c8565b5b6000620002a185828601620001fb565b9250506020620002b48582860162000260565b9150509250929050565b60805160a051611674620002e860003960005050600081816102a301526102f701526116746000f3fe608060405234801561001057600080fd5b506004361061009e5760003560e01c80638a41d3e3116100665780638a41d3e31461016f578063a168fa891461019f578063adcb68e8146101d0578063d8a4676f146101ec578063fc2a88c31461021d5761009e565b80631d5ccd9b146100a35780631fe543e3146100d75780633619283d146100f35780636174b2731461010f5780638796ba8c1461013f575b600080fd5b6100bd60048036038101906100b89190610d2e565b61023b565b6040516100ce959493929190610dab565b60405180910390f35b6100f160048036038101906100ec9190610f57565b6102a1565b005b61010d60048036038101906101089190610d2e565b610361565b005b61012960048036038101906101249190610fb3565b6105c2565b6040516101369190611006565b60405180910390f35b61015960048036038101906101549190610d2e565b6106fb565b6040516101669190611006565b60405180910390f35b61018960048036038101906101849190610d2e565b61071f565b6040516101969190611006565b60405180910390f35b6101b960048036038101906101b49190610d2e565b610737565b6040516101c792919061103c565b60405180910390f35b6101ea60048036038101906101e59190611065565b610775565b005b61020660048036038101906102019190610d2e565b610793565b604051610214929190611163565b60405180910390f35b6102256108bc565b6040516102329190611006565b60405180910390f35b6007818154811061024b57600080fd5b90600052602060002090600502016000915090508060000160009054906101000a900473ffffffffffffffffffffffffffffffffffffffff16908060010154908060020154908060030154908060040154905085565b7f000000000000000000000000000000000000000000000000000000000000000073ffffffffffffffffffffffffffffffffffffffff163373ffffffffffffffffffffffffffffffffffffffff161461035357337f00000000000000000000000000000000000000000000000000000000000000006040517f1cf993f400000000000000000000000000000000000000000000000000000000815260040161034a929190611193565b60405180910390fd5b61035d82826108c2565b5050565b600073ffffffffffffffffffffffffffffffffffffffff166007828154811061038d5761038c6111bc565b5b906000526020600020906005020160000160009054906101000a900473ffffffffffffffffffffffffffffffffffffffff1673ffffffffffffffffffffffffffffffffffffffff161415610416576040517f08c379a000000000000000000000000000000000000000000000000000000000815260040161040d9061126e565b60405180910390fd5b6007818154811061042a576104296111bc565b5b906000526020600020906005020160000160009054906101000a900473ffffffffffffffffffffffffffffffffffffffff1673ffffffffffffffffffffffffffffffffffffffff163373ffffffffffffffffffffffffffffffffffffffff16146104c9576040517f08c379a00000000000000000000000000000000000000000000000000000000081526004016104c0906112da565b60405180910390fd5b6000600782815481106104df576104de6111bc565b5b90600052602060002090600502016004015414610531576040517f08c379a00000000000000000000000000000000000000000000000000000000081526004016105289061136c565b60405180910390fd5b60078181548110610545576105446111bc565b5b906000526020600020906005020160030154421015610599576040517f08c379a0000000000000000000000000000000000000000000000000000000008152600401610590906113fe565b60405180910390fd5b60006105a482610a28565b90508160066000838152602001908152602001600020819055505050565b600060076040518060a001604052803373ffffffffffffffffffffffffffffffffffffffff1681526020018681526020018581526020018481526020016000815250908060018154018082558091505060019003906000526020600020906005020160009091909190915060008201518160000160006101000a81548173ffffffffffffffffffffffffffffffffffffffff021916908373ffffffffffffffffffffffffffffffffffffffff160217905550602082015181600101556040820151816002015560608201518160030155608082015181600401555050600060016007805490506106b2919061144d565b90508385827f4eaaef0da383dabb1fd21875d1e0a914206c01a2f67c0683d2786cc06927592686336040516106e8929190611481565b60405180910390a4809150509392505050565b6002818154811061070b57600080fd5b906000526020600020016000915090505481565b60066020528060005260406000206000915090505481565b60006020528060005260406000206000915090508060000160009054906101000a900460ff16908060000160019054906101000a900460ff16905082565b6000610783838360016105c2565b905061078e81610361565b505050565b6000606060008084815260200190815260200160002060000160019054906101000a900460ff166107f9576040517f08c379a00000000000000000000000000000000000000000000000000000000081526004016107f0906114f6565b60405180910390fd5b60008060008581526020019081526020016000206040518060600160405290816000820160009054906101000a900460ff161515151581526020016000820160019054906101000a900460ff161515151581526020016001820180548060200260200160405190810160405280929190818152602001828054801561089d57602002820191906000526020600020905b815481526020019060010190808311610889575b5050505050815250509050806000015181604001519250925050915091565b60035481565b60008083815260200190815260200160002060000160019054906101000a900460ff16610924576040517f08c379a000000000000000000000000000000000000000000000000000000000815260040161091b906114f6565b60405180910390fd5b600160008084815260200190815260200160002060000160006101000a81548160ff02191690831515021790555080600080848152602001908152602001600020600101908051906020019061097b929190610c7a565b50600060066000848152602001908152602001600020549050816000815181106109a8576109a76111bc565b5b6020026020010151600782815481106109c4576109c36111bc565b5b906000526020600020906005020160040181905550816000815181106109ed576109ec6111bc565b5b602002602001015183827f8a06e59f8bcf6fd7f3d4f78e40f7271ef279eaf8e0fc07df107169ccdc05ab6560405160405180910390a4505050565b6000600160009054906101000a900473ffffffffffffffffffffffffffffffffffffffff1673ffffffffffffffffffffffffffffffffffffffff16635d3b1d30600454600160149054906101000a900467ffffffffffffffff16600560049054906101000a900461ffff16600560009054906101000a900463ffffffff16600560069054906101000a900463ffffffff166040518663ffffffff1660e01b8152600401610ad995949392919061158e565b6020604051808303816000875af1158015610af8573d6000803e3d6000fd5b505050506040513d601f19601f82011682018060405250810190610b1c91906115f6565b90506040518060600160405280600015158152602001600115158152602001600067ffffffffffffffff811115610b5657610b55610e14565b5b604051908082528060200260200182016040528015610b845781602001602082028036833780820191505090505b5081525060008083815260200190815260200160002060008201518160000160006101000a81548160ff02191690831515021790555060208201518160000160016101000a81548160ff0219169083151502179055506040820151816001019080519060200190610bf6929190610c7a565b5090505060028190806001815401808255809150506001900390600052602060002001600090919091909150558060038190555080827ff567066553e2a75ae63c3f8cc1b3d7a6ad8f045de5e9572916c57b95a1163176600560069054906101000a900463ffffffff16604051610c6d9190611623565b60405180910390a3919050565b828054828255906000526020600020908101928215610cb6579160200282015b82811115610cb5578251825591602001919060010190610c9a565b5b509050610cc39190610cc7565b5090565b5b80821115610ce0576000816000905550600101610cc8565b5090565b6000604051905090565b600080fd5b600080fd5b6000819050919050565b610d0b81610cf8565b8114610d1657600080fd5b50565b600081359050610d2881610d02565b92915050565b600060208284031215610d4457610d43610cee565b5b6000610d5284828501610d19565b91505092915050565b600073ffffffffffffffffffffffffffffffffffffffff82169050919050565b6000610d8682610d5b565b9050919050565b610d9681610d7b565b82525050565b610da581610cf8565b82525050565b600060a082019050610dc06000830188610d8d565b610dcd6020830187610d9c565b610dda6040830186610d9c565b610de76060830185610d9c565b610df46080830184610d9c565b9695505050505050565b600080fd5b6000601f19601f8301169050919050565b7f4e487b7100000000000000000000000000000000000000000000000000000000600052604160045260246000fd5b610e4c82610e03565b810181811067ffffffffffffffff82111715610e6b57610e6a610e14565b5b80604052505050565b6000610e7e610ce4565b9050610e8a8282610e43565b919050565b600067ffffffffffffffff821115610eaa57610ea9610e14565b5b602082029050602081019050919050565b600080fd5b6000610ed3610ece84610e8f565b610e74565b90508083825260208201905060208402830185811115610ef657610ef5610ebb565b5b835b81811015610f1f5780610f0b8882610d19565b845260208401935050602081019050610ef8565b5050509392505050565b600082601f830112610f3e57610f3d610dfe565b5b8135610f4e848260208601610ec0565b91505092915050565b60008060408385031215610f6e57610f6d610cee565b5b6000610f7c85828601610d19565b925050602083013567ffffffffffffffff811115610f9d57610f9c610cf3565b5b610fa985828601610f29565b9150509250929050565b600080600060608486031215610fcc57610fcb610cee565b5b6000610fda86828701610d19565b9350506020610feb86828701610d19565b9250506040610ffc86828701610d19565b9150509250925092565b600060208201905061101b6000830184610d9c565b92915050565b60008115159050919050565b61103681611021565b82525050565b6000604082019050611051600083018561102d565b61105e602083018461102d565b9392505050565b6000806040838503121561107c5761107b610cee565b5b600061108a85828601610d19565b925050602061109b85828601610d19565b9150509250929050565b600081519050919050565b600082825260208201905092915050565b6000819050602082019050919050565b6110da81610cf8565b82525050565b60006110ec83836110d1565b60208301905092915050565b6000602082019050919050565b6000611110826110a5565b61111a81856110b0565b9350611125836110c1565b8060005b8381101561115657815161113d88826110e0565b9750611148836110f8565b925050600181019050611129565b5085935050505092915050565b6000604082019050611178600083018561102d565b818103602083015261118a8184611105565b90509392505050565b60006040820190506111a86000830185610d8d565b6111b56020830184610d8d565b9392505050565b7f4e487b7100000000000000000000000000000000000000000000000000000000600052603260045260246000fd5b600082825260208201905092915050565b7f7468657265206973206e6f20726166666c65206174207468697320696e64657860008201527f202f206964000000000000000000000000000000000000000000000000000000602082015250565b60006112586025836111eb565b9150611263826111fc565b604082019050919050565b600060208201905081810360008301526112878161124b565b9050919050565b7f6f6e6c7920746865206f776e65722063616e20726166666c6500000000000000600082015250565b60006112c46019836111eb565b91506112cf8261128e565b602082019050919050565b600060208201905081810360008301526112f3816112b7565b9050919050565b7f612077696e6e65722068617320616c7265616479206265656e2073656c65637460008201527f6564000000000000000000000000000000000000000000000000000000000000602082015250565b60006113566022836111eb565b9150611361826112fa565b604082019050919050565b6000602082019050818103600083015261138581611349565b9050919050565b7f6974277320746f6f206561726c7920746f2073656c65637420612077696e6e6560008201527f7200000000000000000000000000000000000000000000000000000000000000602082015250565b60006113e86021836111eb565b91506113f38261138c565b604082019050919050565b60006020820190508181036000830152611417816113db565b9050919050565b7f4e487b7100000000000000000000000000000000000000000000000000000000600052601160045260246000fd5b600061145882610cf8565b915061146383610cf8565b9250828210156114765761147561141e565b5b828203905092915050565b60006040820190506114966000830185610d9c565b6114a36020830184610d8d565b9392505050565b7f72657175657374206e6f7420666f756e64000000000000000000000000000000600082015250565b60006114e06011836111eb565b91506114eb826114aa565b602082019050919050565b6000602082019050818103600083015261150f816114d3565b9050919050565b6000819050919050565b61152981611516565b82525050565b600067ffffffffffffffff82169050919050565b61154c8161152f565b82525050565b600061ffff82169050919050565b61156981611552565b82525050565b600063ffffffff82169050919050565b6115888161156f565b82525050565b600060a0820190506115a36000830188611520565b6115b06020830187611543565b6115bd6040830186611560565b6115ca606083018561157f565b6115d7608083018461157f565b9695505050505050565b6000815190506115f081610d02565b92915050565b60006020828403121561160c5761160b610cee565b5b600061161a848285016115e1565b91505092915050565b6000602082019050611638600083018461157f565b9291505056fea26469706673582212209d77f90a74a9c11bd173731937bdf8cef2bb2e816e235bac47449ef01d7d0adf64736f6c634300080a0033",
  "linkReferences": {},
  "deployedLinkReferences": {}
}